{
	"address": "0x09E1eC139E6796afB155F9ABD09Bc1b7d8b7091A",
	"abi": [
		{
			"anonymous": false,
			"inputs": [
				{
					"indexed": true,
					"internalType": "address",
					"name": "owner",
					"type": "address"
				},
				{
					"indexed": true,
					"internalType": "address",
					"name": "approved",
					"type": "address"
				},
				{
					"indexed": true,
					"internalType": "uint256",
					"name": "tokenId",
					"type": "uint256"
				}
			],
			"name": "Approval",
			"type": "event"
		},
		{
			"anonymous": false,
			"inputs": [
				{
					"indexed": true,
					"internalType": "address",
					"name": "owner",
					"type": "address"
				},
				{
					"indexed": true,
					"internalType": "address",
					"name": "operator",
					"type": "address"
				},
				{
					"indexed": false,
					"internalType": "bool",
					"name": "approved",
					"type": "bool"
				}
			],
			"name": "ApprovalForAll",
			"type": "event"
		},
		{
			"anonymous": false,
			"inputs": [
				{
					"indexed": false,
					"internalType": "uint8",
					"name": "version",
					"type": "uint8"
				}
			],
			"name": "Initialized",
			"type": "event"
		},
		{
			"anonymous": false,
			"inputs": [
				{
					"indexed": true,
					"internalType": "address",
					"name": "previousOwner",
					"type": "address"
				},
				{
					"indexed": true,
					"internalType": "address",
					"name": "newOwner",
					"type": "address"
				}
			],
			"name": "OwnershipTransferred",
			"type": "event"
		},
		{
			"anonymous": false,
			"inputs": [
				{
					"indexed": false,
					"internalType": "address",
					"name": "admin",
					"type": "address"
				},
				{
					"indexed": false,
					"internalType": "bool",
					"name": "enabled",
					"type": "bool"
				}
			],
			"name": "SetAdmin",
			"type": "event"
		},
		{
			"anonymous": false,
			"inputs": [
				{
					"indexed": true,
					"internalType": "address",
					"name": "from",
					"type": "address"
				},
				{
					"indexed": true,
					"internalType": "address",
					"name": "to",
					"type": "address"
				},
				{
					"indexed": true,
					"internalType": "uint256",
					"name": "tokenId",
					"type": "uint256"
				}
			],
			"name": "Transfer",
			"type": "event"
		},
		{
			"inputs": [
				{
					"internalType": "address",
					"name": "",
					"type": "address"
				}
			],
			"name": "admins",
			"outputs": [
				{
					"internalType": "bool",
					"name": "",
					"type": "bool"
				}
			],
			"stateMutability": "view",
			"type": "function"
		},
		{
			"inputs": [
				{
					"internalType": "address",
					"name": "to",
					"type": "address"
				},
				{
					"internalType": "uint256",
					"name": "tokenId",
					"type": "uint256"
				}
			],
			"name": "approve",
			"outputs": [],
			"stateMutability": "nonpayable",
			"type": "function"
		},
		{
			"inputs": [
				{
					"internalType": "address",
					"name": "owner",
					"type": "address"
				}
			],
			"name": "balanceOf",
			"outputs": [
				{
					"internalType": "uint256",
					"name": "",
					"type": "uint256"
				}
			],
			"stateMutability": "view",
			"type": "function"
		},
		{
			"inputs": [
				{
					"internalType": "uint256",
					"name": "tokenId",
					"type": "uint256"
				}
			],
			"name": "getApproved",
			"outputs": [
				{
					"internalType": "address",
					"name": "",
					"type": "address"
				}
			],
			"stateMutability": "view",
			"type": "function"
		},
		{
			"inputs": [
				{
					"internalType": "string",
					"name": "__name",
					"type": "string"
				},
				{
					"internalType": "string",
					"name": "__symbol",
					"type": "string"
				}
			],
			"name": "initialize",
			"outputs": [],
			"stateMutability": "nonpayable",
			"type": "function"
		},
		{
			"inputs": [
				{
					"internalType": "address",
					"name": "owner",
					"type": "address"
				},
				{
					"internalType": "address",
					"name": "operator",
					"type": "address"
				}
			],
			"name": "isApprovedForAll",
			"outputs": [
				{
					"internalType": "bool",
					"name": "",
					"type": "bool"
				}
			],
			"stateMutability": "view",
			"type": "function"
		},
		{
			"inputs": [
				{
					"internalType": "address",
					"name": "to",
					"type": "address"
				}
			],
			"name": "mint",
			"outputs": [
				{
					"internalType": "uint256",
					"name": "tokenId",
					"type": "uint256"
				}
			],
			"stateMutability": "nonpayable",
			"type": "function"
		},
		{
			"inputs": [
				{
					"internalType": "address",
					"name": "to",
					"type": "address"
				},
				{
					"internalType": "string",
					"name": "_tokenURI",
					"type": "string"
				}
			],
			"name": "mintWith",
			"outputs": [
				{
					"internalType": "uint256",
					"name": "tokenId",
					"type": "uint256"
				}
			],
			"stateMutability": "nonpayable",
			"type": "function"
		},
		{
			"inputs": [],
			"name": "name",
			"outputs": [
				{
					"internalType": "string",
					"name": "",
					"type": "string"
				}
			],
			"stateMutability": "view",
			"type": "function"
		},
		{
			"inputs": [],
			"name": "owner",
			"outputs": [
				{
					"internalType": "address",
					"name": "",
					"type": "address"
				}
			],
			"stateMutability": "view",
			"type": "function"
		},
		{
			"inputs": [
				{
					"internalType": "uint256",
					"name": "tokenId",
					"type": "uint256"
				}
			],
			"name": "ownerOf",
			"outputs": [
				{
					"internalType": "address",
					"name": "",
					"type": "address"
				}
			],
			"stateMutability": "view",
			"type": "function"
		},
		{
			"inputs": [],
			"name": "renounceOwnership",
			"outputs": [],
			"stateMutability": "nonpayable",
			"type": "function"
		},
		{
			"inputs": [
				{
					"internalType": "address",
					"name": "from",
					"type": "address"
				},
				{
					"internalType": "address",
					"name": "to",
					"type": "address"
				},
				{
					"internalType": "uint256",
					"name": "tokenId",
					"type": "uint256"
				}
			],
			"name": "safeTransferFrom",
			"outputs": [],
			"stateMutability": "nonpayable",
			"type": "function"
		},
		{
			"inputs": [
				{
					"internalType": "address",
					"name": "from",
					"type": "address"
				},
				{
					"internalType": "address",
					"name": "to",
					"type": "address"
				},
				{
					"internalType": "uint256",
					"name": "tokenId",
					"type": "uint256"
				},
				{
					"internalType": "bytes",
					"name": "_data",
					"type": "bytes"
				}
			],
			"name": "safeTransferFrom",
			"outputs": [],
			"stateMutability": "nonpayable",
			"type": "function"
		},
		{
			"inputs": [
				{
					"internalType": "address",
					"name": "admin",
					"type": "address"
				},
				{
					"internalType": "bool",
					"name": "enabled",
					"type": "bool"
				}
			],
			"name": "setAdmin",
			"outputs": [],
			"stateMutability": "nonpayable",
			"type": "function"
		},
		{
			"inputs": [
				{
					"internalType": "address",
					"name": "operator",
					"type": "address"
				},
				{
					"internalType": "bool",
					"name": "approved",
					"type": "bool"
				}
			],
			"name": "setApprovalForAll",
			"outputs": [],
			"stateMutability": "nonpayable",
			"type": "function"
		},
		{
			"inputs": [
				{
					"internalType": "uint256[]",
					"name": "_tokenIds",
					"type": "uint256[]"
				},
				{
					"internalType": "string[]",
					"name": "_tokenURIs",
					"type": "string[]"
				}
			],
			"name": "setTokenURIs",
			"outputs": [],
			"stateMutability": "nonpayable",
			"type": "function"
		},
		{
			"inputs": [
				{
					"internalType": "bytes4",
					"name": "interfaceId",
					"type": "bytes4"
				}
			],
			"name": "supportsInterface",
			"outputs": [
				{
					"internalType": "bool",
					"name": "",
					"type": "bool"
				}
			],
			"stateMutability": "view",
			"type": "function"
		},
		{
			"inputs": [],
			"name": "symbol",
			"outputs": [
				{
					"internalType": "string",
					"name": "",
					"type": "string"
				}
			],
			"stateMutability": "view",
			"type": "function"
		},
		{
			"inputs": [
				{
					"internalType": "uint256",
					"name": "tokenId",
					"type": "uint256"
				}
			],
			"name": "tokenURI",
			"outputs": [
				{
					"internalType": "string",
					"name": "",
					"type": "string"
				}
			],
			"stateMutability": "view",
			"type": "function"
		},
		{
			"inputs": [
				{
					"internalType": "address",
					"name": "from",
					"type": "address"
				},
				{
					"internalType": "address",
					"name": "to",
					"type": "address"
				},
				{
					"internalType": "uint256",
					"name": "tokenId",
					"type": "uint256"
				}
			],
			"name": "transferFrom",
			"outputs": [],
			"stateMutability": "nonpayable",
			"type": "function"
		},
		{
			"inputs": [
				{
					"internalType": "address",
					"name": "newOwner",
					"type": "address"
				}
			],
			"name": "transferOwnership",
			"outputs": [],
			"stateMutability": "nonpayable",
			"type": "function"
		}
	],
	"transactionHash": "0xa71da1882c446d7c74f49866b6e4dec947cf288ab302729284dd4bc342cab422",
	"args": [],
	"numDeployments": 2,
	"solcInputHash": "6740a21cc9ee2f6d602614272239548f",
	"bytecode": "0x6080604052600060fc5534801561001557600080fd5b50613bc8806100256000396000f3fe608060405234801561001057600080fd5b50600436106101425760003560e01c80636a627842116100b8578063a22cb4651161007c578063a22cb46514610387578063b88d4fde146103a3578063c87b56dd146103bf578063db3e4c84146103ef578063e985e9c51461040b578063f2fde38b1461043b57610142565b80636a627842146102e157806370a0823114610311578063715018a6146103415780638da5cb5b1461034b57806395d89b411461036957610142565b806323b872dd1161010a57806323b872dd1461021157806342842e0e1461022d578063429b62e5146102495780634b0bddd2146102795780634cd88b76146102955780636352211e146102b157610142565b806301ffc9a71461014757806306fdde0314610177578063081812fc1461019557806308811817146101c5578063095ea7b3146101f5575b600080fd5b610161600480360381019061015c91906127e5565b610457565b60405161016e9190612d79565b60405180910390f35b61017f610539565b60405161018c9190612daf565b60405180910390f35b6101af60048036038101906101aa91906128b7565b6105cb565b6040516101bc9190612ce9565b60405180910390f35b6101df60048036038101906101da91906126d1565b610650565b6040516101ec9190613091565b60405180910390f35b61020f600480360381019061020a919061272d565b610700565b005b61022b600480360381019061022691906125bb565b610818565b005b610247600480360381019061024291906125bb565b610878565b005b610263600480360381019061025e919061254e565b610898565b6040516102709190612d79565b60405180910390f35b610293600480360381019061028e9190612691565b6108b8565b005b6102af60048036038101906102aa919061283f565b6109c8565b005b6102cb60048036038101906102c691906128b7565b610a68565b6040516102d89190612ce9565b60405180910390f35b6102fb60048036038101906102f6919061254e565b610b1a565b6040516103089190613091565b60405180910390f35b61032b6004803603810190610326919061254e565b610bc8565b6040516103389190613091565b60405180910390f35b610349610c80565b005b610353610d08565b6040516103609190612ce9565b60405180910390f35b610371610d32565b60405161037e9190612daf565b60405180910390f35b6103a1600480360381019061039c9190612691565b610dc4565b005b6103bd60048036038101906103b8919061260e565b610dda565b005b6103d960048036038101906103d491906128b7565b610e3c565b6040516103e69190612daf565b60405180910390f35b6104096004803603810190610404919061276d565b610f8e565b005b6104256004803603810190610420919061257b565b611034565b6040516104329190612d79565b60405180910390f35b6104556004803603810190610450919061254e565b6110c8565b005b60007f80ac58cd000000000000000000000000000000000000000000000000000000007bffffffffffffffffffffffffffffffffffffffffffffffffffffffff1916827bffffffffffffffffffffffffffffffffffffffffffffffffffffffff1916148061052257507f5b5e139f000000000000000000000000000000000000000000000000000000007bffffffffffffffffffffffffffffffffffffffffffffffffffffffff1916827bffffffffffffffffffffffffffffffffffffffffffffffffffffffff1916145b806105325750610531826111c0565b5b9050919050565b6060606580546105489061335e565b80601f01602080910402602001604051908101604052809291908181526020018280546105749061335e565b80156105c15780601f10610596576101008083540402835291602001916105c1565b820191906000526020600020905b8154815290600101906020018083116105a457829003601f168201915b5050505050905090565b60006105d68261122a565b610615576040517f08c379a000000000000000000000000000000000000000000000000000000000815260040161060c90612f91565b60405180910390fd5b6069600083815260200190815260200160002060009054906101000a900473ffffffffffffffffffffffffffffffffffffffff169050919050565b600060fb600061065e611296565b73ffffffffffffffffffffffffffffffffffffffff1673ffffffffffffffffffffffffffffffffffffffff16815260200190815260200160002060009054906101000a900460ff166106e5576040517f08c379a00000000000000000000000000000000000000000000000000000000081526004016106dc90613071565b60405180910390fd5b6106ee83610b1a565b90506106fa818361129e565b92915050565b600061070b82610a68565b90508073ffffffffffffffffffffffffffffffffffffffff168373ffffffffffffffffffffffffffffffffffffffff16141561077c576040517f08c379a000000000000000000000000000000000000000000000000000000000815260040161077390612ff1565b60405180910390fd5b8073ffffffffffffffffffffffffffffffffffffffff1661079b611296565b73ffffffffffffffffffffffffffffffffffffffff1614806107ca57506107c9816107c4611296565b611034565b5b610809576040517f08c379a000000000000000000000000000000000000000000000000000000000815260040161080090612eb1565b60405180910390fd5b6108138383611312565b505050565b610829610823611296565b826113cb565b610868576040517f08c379a000000000000000000000000000000000000000000000000000000000815260040161085f90613031565b60405180910390fd5b6108738383836114a9565b505050565b61089383838360405180602001604052806000815250610dda565b505050565b60fb6020528060005260406000206000915054906101000a900460ff1681565b6108c0611296565b73ffffffffffffffffffffffffffffffffffffffff166108de610d08565b73ffffffffffffffffffffffffffffffffffffffff1614610934576040517f08c379a000000000000000000000000000000000000000000000000000000000815260040161092b90612fb1565b60405180910390fd5b8060fb60008473ffffffffffffffffffffffffffffffffffffffff1673ffffffffffffffffffffffffffffffffffffffff16815260200190815260200160002060006101000a81548160ff0219169083151502179055507f55a5194bc0174fcaf12b2978bef43911466bf63b34db8d1dd1a0d5dcd5c41bea82826040516109bc929190612d50565b60405180910390a15050565b60006109d46001611710565b905080156109f8576001600060016101000a81548160ff0219169083151502179055505b610a028383611800565b610a0a61185d565b8015610a635760008060016101000a81548160ff0219169083151502179055507f7f26b83ff96e1f2b6a682f133852f6798a09c465da95921460cefb38474024986001604051610a5a9190612d94565b60405180910390a15b505050565b6000806067600084815260200190815260200160002060009054906101000a900473ffffffffffffffffffffffffffffffffffffffff169050600073ffffffffffffffffffffffffffffffffffffffff168173ffffffffffffffffffffffffffffffffffffffff161415610b11576040517f08c379a0000000000000000000000000000000000000000000000000000000008152600401610b0890612ef1565b60405180910390fd5b80915050919050565b600060fb6000610b28611296565b73ffffffffffffffffffffffffffffffffffffffff1673ffffffffffffffffffffffffffffffffffffffff16815260200190815260200160002060009054906101000a900460ff16610baf576040517f08c379a0000000000000000000000000000000000000000000000000000000008152600401610ba690613071565b60405180910390fd5b610bb76118b6565b9050610bc382826118da565b919050565b60008073ffffffffffffffffffffffffffffffffffffffff168273ffffffffffffffffffffffffffffffffffffffff161415610c39576040517f08c379a0000000000000000000000000000000000000000000000000000000008152600401610c3090612ed1565b60405180910390fd5b606860008373ffffffffffffffffffffffffffffffffffffffff1673ffffffffffffffffffffffffffffffffffffffff168152602001908152602001600020549050919050565b610c88611296565b73ffffffffffffffffffffffffffffffffffffffff16610ca6610d08565b73ffffffffffffffffffffffffffffffffffffffff1614610cfc576040517f08c379a0000000000000000000000000000000000000000000000000000000008152600401610cf390612fb1565b60405180910390fd5b610d066000611ab4565b565b600060c960009054906101000a900473ffffffffffffffffffffffffffffffffffffffff16905090565b606060668054610d419061335e565b80601f0160208091040260200160405190810160405280929190818152602001828054610d6d9061335e565b8015610dba5780601f10610d8f57610100808354040283529160200191610dba565b820191906000526020600020905b815481529060010190602001808311610d9d57829003601f168201915b5050505050905090565b610dd6610dcf611296565b8383611b7a565b5050565b610deb610de5611296565b836113cb565b610e2a576040517f08c379a0000000000000000000000000000000000000000000000000000000008152600401610e2190613031565b60405180910390fd5b610e3684848484611ce7565b50505050565b6060610e478261122a565b610e86576040517f08c379a0000000000000000000000000000000000000000000000000000000008152600401610e7d90612f71565b60405180910390fd5b6000609760008481526020019081526020016000208054610ea69061335e565b80601f0160208091040260200160405190810160405280929190818152602001828054610ed29061335e565b8015610f1f5780601f10610ef457610100808354040283529160200191610f1f565b820191906000526020600020905b815481529060010190602001808311610f0257829003601f168201915b505050505090506000610f30611d43565b9050600081511415610f46578192505050610f89565b600082511115610f7b578082604051602001610f63929190612cc5565b60405160208183030381529060405292505050610f89565b610f8484611d5a565b925050505b919050565b8051825114610fd2576040517f08c379a0000000000000000000000000000000000000000000000000000000008152600401610fc990613011565b60405180910390fd5b60005b815181101561102f5761101c838281518110610ff457610ff36134c8565b5b602002602001015183838151811061100f5761100e6134c8565b5b602002602001015161129e565b8080611027906133c1565b915050610fd5565b505050565b6000606a60008473ffffffffffffffffffffffffffffffffffffffff1673ffffffffffffffffffffffffffffffffffffffff16815260200190815260200160002060008373ffffffffffffffffffffffffffffffffffffffff1673ffffffffffffffffffffffffffffffffffffffff16815260200190815260200160002060009054906101000a900460ff16905092915050565b6110d0611296565b73ffffffffffffffffffffffffffffffffffffffff166110ee610d08565b73ffffffffffffffffffffffffffffffffffffffff1614611144576040517f08c379a000000000000000000000000000000000000000000000000000000000815260040161113b90612fb1565b60405180910390fd5b600073ffffffffffffffffffffffffffffffffffffffff168173ffffffffffffffffffffffffffffffffffffffff1614156111b4576040517f08c379a00000000000000000000000000000000000000000000000000000000081526004016111ab90612df1565b60405180910390fd5b6111bd81611ab4565b50565b60007f01ffc9a7000000000000000000000000000000000000000000000000000000007bffffffffffffffffffffffffffffffffffffffffffffffffffffffff1916827bffffffffffffffffffffffffffffffffffffffffffffffffffffffff1916149050919050565b60008073ffffffffffffffffffffffffffffffffffffffff166067600084815260200190815260200160002060009054906101000a900473ffffffffffffffffffffffffffffffffffffffff1673ffffffffffffffffffffffffffffffffffffffff1614159050919050565b600033905090565b6112a78261122a565b6112e6576040517f08c379a00000000000000000000000000000000000000000000000000000000081526004016112dd90612f11565b60405180910390fd5b8060976000848152602001908152602001600020908051906020019061130d929190612208565b505050565b816069600083815260200190815260200160002060006101000a81548173ffffffffffffffffffffffffffffffffffffffff021916908373ffffffffffffffffffffffffffffffffffffffff160217905550808273ffffffffffffffffffffffffffffffffffffffff1661138583610a68565b73ffffffffffffffffffffffffffffffffffffffff167f8c5be1e5ebec7d5bd14f71427d1e84f3dd0314c0f7b2291e5b200ac8c7c3b92560405160405180910390a45050565b60006113d68261122a565b611415576040517f08c379a000000000000000000000000000000000000000000000000000000000815260040161140c90612e91565b60405180910390fd5b600061142083610a68565b90508073ffffffffffffffffffffffffffffffffffffffff168473ffffffffffffffffffffffffffffffffffffffff16148061146257506114618185611034565b5b806114a057508373ffffffffffffffffffffffffffffffffffffffff16611488846105cb565b73ffffffffffffffffffffffffffffffffffffffff16145b91505092915050565b8273ffffffffffffffffffffffffffffffffffffffff166114c982610a68565b73ffffffffffffffffffffffffffffffffffffffff161461151f576040517f08c379a000000000000000000000000000000000000000000000000000000000815260040161151690612e11565b60405180910390fd5b600073ffffffffffffffffffffffffffffffffffffffff168273ffffffffffffffffffffffffffffffffffffffff16141561158f576040517f08c379a000000000000000000000000000000000000000000000000000000000815260040161158690612e51565b60405180910390fd5b61159a838383611e01565b6115a5600082611312565b6001606860008573ffffffffffffffffffffffffffffffffffffffff1673ffffffffffffffffffffffffffffffffffffffff16815260200190815260200160002060008282546115f59190613255565b925050819055506001606860008473ffffffffffffffffffffffffffffffffffffffff1673ffffffffffffffffffffffffffffffffffffffff168152602001908152602001600020600082825461164c91906131ce565b92505081905550816067600083815260200190815260200160002060006101000a81548173ffffffffffffffffffffffffffffffffffffffff021916908373ffffffffffffffffffffffffffffffffffffffff160217905550808273ffffffffffffffffffffffffffffffffffffffff168473ffffffffffffffffffffffffffffffffffffffff167fddf252ad1be2c89b69c2b068fc378daa952ba7f163c4a11628f55a4df523b3ef60405160405180910390a461170b838383611e06565b505050565b60008060019054906101000a900460ff16156117875760018260ff1614801561173f575061173d30611e0b565b155b61177e576040517f08c379a000000000000000000000000000000000000000000000000000000000815260040161177590612f31565b60405180910390fd5b600090506117fb565b8160ff1660008054906101000a900460ff1660ff16106117dc576040517f08c379a00000000000000000000000000000000000000000000000000000000081526004016117d390612f31565b60405180910390fd5b816000806101000a81548160ff021916908360ff160217905550600190505b919050565b600060019054906101000a900460ff1661184f576040517f08c379a000000000000000000000000000000000000000000000000000000000815260040161184690613051565b60405180910390fd5b6118598282611e2e565b5050565b600060019054906101000a900460ff166118ac576040517f08c379a00000000000000000000000000000000000000000000000000000000081526004016118a390613051565b60405180910390fd5b6118b4611eaf565b565b6000600160fc60008282546118cb91906131ce565b9250508190555060fc54905090565b600073ffffffffffffffffffffffffffffffffffffffff168273ffffffffffffffffffffffffffffffffffffffff16141561194a576040517f08c379a000000000000000000000000000000000000000000000000000000000815260040161194190612f51565b60405180910390fd5b6119538161122a565b15611993576040517f08c379a000000000000000000000000000000000000000000000000000000000815260040161198a90612e31565b60405180910390fd5b61199f60008383611e01565b6001606860008473ffffffffffffffffffffffffffffffffffffffff1673ffffffffffffffffffffffffffffffffffffffff16815260200190815260200160002060008282546119ef91906131ce565b92505081905550816067600083815260200190815260200160002060006101000a81548173ffffffffffffffffffffffffffffffffffffffff021916908373ffffffffffffffffffffffffffffffffffffffff160217905550808273ffffffffffffffffffffffffffffffffffffffff16600073ffffffffffffffffffffffffffffffffffffffff167fddf252ad1be2c89b69c2b068fc378daa952ba7f163c4a11628f55a4df523b3ef60405160405180910390a4611ab060008383611e06565b5050565b600060c960009054906101000a900473ffffffffffffffffffffffffffffffffffffffff1690508160c960006101000a81548173ffffffffffffffffffffffffffffffffffffffff021916908373ffffffffffffffffffffffffffffffffffffffff1602179055508173ffffffffffffffffffffffffffffffffffffffff168173ffffffffffffffffffffffffffffffffffffffff167f8be0079c531659141344cd1fd0a4f28419497f9722a3daafe3b4186f6b6457e060405160405180910390a35050565b8173ffffffffffffffffffffffffffffffffffffffff168373ffffffffffffffffffffffffffffffffffffffff161415611be9576040517f08c379a0000000000000000000000000000000000000000000000000000000008152600401611be090612e71565b60405180910390fd5b80606a60008573ffffffffffffffffffffffffffffffffffffffff1673ffffffffffffffffffffffffffffffffffffffff16815260200190815260200160002060008473ffffffffffffffffffffffffffffffffffffffff1673ffffffffffffffffffffffffffffffffffffffff16815260200190815260200160002060006101000a81548160ff0219169083151502179055508173ffffffffffffffffffffffffffffffffffffffff168373ffffffffffffffffffffffffffffffffffffffff167f17307eab39ab6107e8899845ad3d59bd9653f200f220920489ca2b5937696c3183604051611cda9190612d79565b60405180910390a3505050565b611cf28484846114a9565b611cfe84848484611f10565b611d3d576040517f08c379a0000000000000000000000000000000000000000000000000000000008152600401611d3490612dd1565b60405180910390fd5b50505050565b606060405180602001604052806000815250905090565b6060611d658261122a565b611da4576040517f08c379a0000000000000000000000000000000000000000000000000000000008152600401611d9b90612fd1565b60405180910390fd5b6000611dae611d43565b90506000815111611dce5760405180602001604052806000815250611df9565b80611dd8846120a7565b604051602001611de9929190612cc5565b6040516020818303038152906040525b915050919050565b505050565b505050565b6000808273ffffffffffffffffffffffffffffffffffffffff163b119050919050565b600060019054906101000a900460ff16611e7d576040517f08c379a0000000000000000000000000000000000000000000000000000000008152600401611e7490613051565b60405180910390fd5b8160659080519060200190611e93929190612208565b508060669080519060200190611eaa929190612208565b505050565b600060019054906101000a900460ff16611efe576040517f08c379a0000000000000000000000000000000000000000000000000000000008152600401611ef590613051565b60405180910390fd5b611f0e611f09611296565b611ab4565b565b6000611f318473ffffffffffffffffffffffffffffffffffffffff16611e0b565b1561209a578373ffffffffffffffffffffffffffffffffffffffff1663150b7a02611f5a611296565b8786866040518563ffffffff1660e01b8152600401611f7c9493929190612d04565b602060405180830381600087803b158015611f9657600080fd5b505af1925050508015611fc757506040513d601f19601f82011682018060405250810190611fc49190612812565b60015b61204a573d8060008114611ff7576040519150601f19603f3d011682016040523d82523d6000602084013e611ffc565b606091505b50600081511415612042576040517f08c379a000000000000000000000000000000000000000000000000000000000815260040161203990612dd1565b60405180910390fd5b805181602001fd5b63150b7a0260e01b7bffffffffffffffffffffffffffffffffffffffffffffffffffffffff1916817bffffffffffffffffffffffffffffffffffffffffffffffffffffffff19161491505061209f565b600190505b949350505050565b606060008214156120ef576040518060400160405280600181526020017f30000000000000000000000000000000000000000000000000000000000000008152509050612203565b600082905060005b6000821461212157808061210a906133c1565b915050600a8261211a9190613224565b91506120f7565b60008167ffffffffffffffff81111561213d5761213c6134f7565b5b6040519080825280601f01601f19166020018201604052801561216f5781602001600182028036833780820191505090505b5090505b600085146121fc576001826121889190613255565b9150600a85612197919061340a565b60306121a391906131ce565b60f81b8183815181106121b9576121b86134c8565b5b60200101907effffffffffffffffffffffffffffffffffffffffffffffffffffffffffffff1916908160001a905350600a856121f59190613224565b9450612173565b8093505050505b919050565b8280546122149061335e565b90600052602060002090601f016020900481019282612236576000855561227d565b82601f1061224f57805160ff191683800117855561227d565b8280016001018555821561227d579182015b8281111561227c578251825591602001919060010190612261565b5b50905061228a919061228e565b5090565b5b808211156122a757600081600090555060010161228f565b5090565b60006122be6122b9846130d1565b6130ac565b905080838252602082019050828560208602820111156122e1576122e061352b565b5b60005b8581101561232f57813567ffffffffffffffff81111561230757612306613526565b5b808601612314898261250b565b855260208501945060208401935050506001810190506122e4565b5050509392505050565b600061234c612347846130fd565b6130ac565b9050808382526020820190508285602086028201111561236f5761236e61352b565b5b60005b8581101561239f57816123858882612539565b845260208401935060208301925050600181019050612372565b5050509392505050565b60006123bc6123b784613129565b6130ac565b9050828152602081018484840111156123d8576123d7613530565b5b6123e384828561331c565b509392505050565b60006123fe6123f98461315a565b6130ac565b90508281526020810184848401111561241a57612419613530565b5b61242584828561331c565b509392505050565b60008135905061243c81613b36565b92915050565b600082601f83011261245757612456613526565b5b81356124678482602086016122ab565b91505092915050565b600082601f83011261248557612484613526565b5b8135612495848260208601612339565b91505092915050565b6000813590506124ad81613b4d565b92915050565b6000813590506124c281613b64565b92915050565b6000815190506124d781613b64565b92915050565b600082601f8301126124f2576124f1613526565b5b81356125028482602086016123a9565b91505092915050565b600082601f8301126125205761251f613526565b5b81356125308482602086016123eb565b91505092915050565b60008135905061254881613b7b565b92915050565b6000602082840312156125645761256361353a565b5b60006125728482850161242d565b91505092915050565b600080604083850312156125925761259161353a565b5b60006125a08582860161242d565b92505060206125b18582860161242d565b9150509250929050565b6000806000606084860312156125d4576125d361353a565b5b60006125e28682870161242d565b93505060206125f38682870161242d565b925050604061260486828701612539565b9150509250925092565b600080600080608085870312156126285761262761353a565b5b60006126368782880161242d565b94505060206126478782880161242d565b935050604061265887828801612539565b925050606085013567ffffffffffffffff81111561267957612678613535565b5b612685878288016124dd565b91505092959194509250565b600080604083850312156126a8576126a761353a565b5b60006126b68582860161242d565b92505060206126c78582860161249e565b9150509250929050565b600080604083850312156126e8576126e761353a565b5b60006126f68582860161242d565b925050602083013567ffffffffffffffff81111561271757612716613535565b5b6127238582860161250b565b9150509250929050565b600080604083850312156127445761274361353a565b5b60006127528582860161242d565b925050602061276385828601612539565b9150509250929050565b600080604083850312156127845761278361353a565b5b600083013567ffffffffffffffff8111156127a2576127a1613535565b5b6127ae85828601612470565b925050602083013567ffffffffffffffff8111156127cf576127ce613535565b5b6127db85828601612442565b9150509250929050565b6000602082840312156127fb576127fa61353a565b5b6000612809848285016124b3565b91505092915050565b6000602082840312156128285761282761353a565b5b6000612836848285016124c8565b91505092915050565b600080604083850312156128565761285561353a565b5b600083013567ffffffffffffffff81111561287457612873613535565b5b6128808582860161250b565b925050602083013567ffffffffffffffff8111156128a1576128a0613535565b5b6128ad8582860161250b565b9150509250929050565b6000602082840312156128cd576128cc61353a565b5b60006128db84828501612539565b91505092915050565b6128ed81613289565b82525050565b6128fc8161329b565b82525050565b600061290d8261318b565b61291781856131a1565b935061292781856020860161332b565b6129308161353f565b840191505092915050565b6129448161330a565b82525050565b600061295582613196565b61295f81856131b2565b935061296f81856020860161332b565b6129788161353f565b840191505092915050565b600061298e82613196565b61299881856131c3565b93506129a881856020860161332b565b80840191505092915050565b60006129c16032836131b2565b91506129cc82613550565b604082019050919050565b60006129e46026836131b2565b91506129ef8261359f565b604082019050919050565b6000612a076025836131b2565b9150612a12826135ee565b604082019050919050565b6000612a2a601c836131b2565b9150612a358261363d565b602082019050919050565b6000612a4d6024836131b2565b9150612a5882613666565b604082019050919050565b6000612a706019836131b2565b9150612a7b826136b5565b602082019050919050565b6000612a93602c836131b2565b9150612a9e826136de565b604082019050919050565b6000612ab66038836131b2565b9150612ac18261372d565b604082019050919050565b6000612ad9602a836131b2565b9150612ae48261377c565b604082019050919050565b6000612afc6029836131b2565b9150612b07826137cb565b604082019050919050565b6000612b1f602e836131b2565b9150612b2a8261381a565b604082019050919050565b6000612b42602e836131b2565b9150612b4d82613869565b604082019050919050565b6000612b656020836131b2565b9150612b70826138b8565b602082019050919050565b6000612b886031836131b2565b9150612b93826138e1565b604082019050919050565b6000612bab602c836131b2565b9150612bb682613930565b604082019050919050565b6000612bce6020836131b2565b9150612bd98261397f565b602082019050919050565b6000612bf1602f836131b2565b9150612bfc826139a8565b604082019050919050565b6000612c146021836131b2565b9150612c1f826139f7565b604082019050919050565b6000612c37600f836131b2565b9150612c4282613a46565b602082019050919050565b6000612c5a6031836131b2565b9150612c6582613a6f565b604082019050919050565b6000612c7d602b836131b2565b9150612c8882613abe565b604082019050919050565b6000612ca06009836131b2565b9150612cab82613b0d565b602082019050919050565b612cbf816132f3565b82525050565b6000612cd18285612983565b9150612cdd8284612983565b91508190509392505050565b6000602082019050612cfe60008301846128e4565b92915050565b6000608082019050612d1960008301876128e4565b612d2660208301866128e4565b612d336040830185612cb6565b8181036060830152612d458184612902565b905095945050505050565b6000604082019050612d6560008301856128e4565b612d7260208301846128f3565b9392505050565b6000602082019050612d8e60008301846128f3565b92915050565b6000602082019050612da9600083018461293b565b92915050565b60006020820190508181036000830152612dc9818461294a565b905092915050565b60006020820190508181036000830152612dea816129b4565b9050919050565b60006020820190508181036000830152612e0a816129d7565b9050919050565b60006020820190508181036000830152612e2a816129fa565b9050919050565b60006020820190508181036000830152612e4a81612a1d565b9050919050565b60006020820190508181036000830152612e6a81612a40565b9050919050565b60006020820190508181036000830152612e8a81612a63565b9050919050565b60006020820190508181036000830152612eaa81612a86565b9050919050565b60006020820190508181036000830152612eca81612aa9565b9050919050565b60006020820190508181036000830152612eea81612acc565b9050919050565b60006020820190508181036000830152612f0a81612aef565b9050919050565b60006020820190508181036000830152612f2a81612b12565b9050919050565b60006020820190508181036000830152612f4a81612b35565b9050919050565b60006020820190508181036000830152612f6a81612b58565b9050919050565b60006020820190508181036000830152612f8a81612b7b565b9050919050565b60006020820190508181036000830152612faa81612b9e565b9050919050565b60006020820190508181036000830152612fca81612bc1565b9050919050565b60006020820190508181036000830152612fea81612be4565b9050919050565b6000602082019050818103600083015261300a81612c07565b9050919050565b6000602082019050818103600083015261302a81612c2a565b9050919050565b6000602082019050818103600083015261304a81612c4d565b9050919050565b6000602082019050818103600083015261306a81612c70565b9050919050565b6000602082019050818103600083015261308a81612c93565b9050919050565b60006020820190506130a66000830184612cb6565b92915050565b60006130b66130c7565b90506130c28282613390565b919050565b6000604051905090565b600067ffffffffffffffff8211156130ec576130eb6134f7565b5b602082029050602081019050919050565b600067ffffffffffffffff821115613118576131176134f7565b5b602082029050602081019050919050565b600067ffffffffffffffff821115613144576131436134f7565b5b61314d8261353f565b9050602081019050919050565b600067ffffffffffffffff821115613175576131746134f7565b5b61317e8261353f565b9050602081019050919050565b600081519050919050565b600081519050919050565b600082825260208201905092915050565b600082825260208201905092915050565b600081905092915050565b60006131d9826132f3565b91506131e4836132f3565b9250827fffffffffffffffffffffffffffffffffffffffffffffffffffffffffffffffff038211156132195761321861343b565b5b828201905092915050565b600061322f826132f3565b915061323a836132f3565b92508261324a5761324961346a565b5b828204905092915050565b6000613260826132f3565b915061326b836132f3565b92508282101561327e5761327d61343b565b5b828203905092915050565b6000613294826132d3565b9050919050565b60008115159050919050565b60007fffffffff0000000000000000000000000000000000000000000000000000000082169050919050565b600073ffffffffffffffffffffffffffffffffffffffff82169050919050565b6000819050919050565b600060ff82169050919050565b6000613315826132fd565b9050919050565b82818337600083830152505050565b60005b8381101561334957808201518184015260208101905061332e565b83811115613358576000848401525b50505050565b6000600282049050600182168061337657607f821691505b6020821081141561338a57613389613499565b5b50919050565b6133998261353f565b810181811067ffffffffffffffff821117156133b8576133b76134f7565b5b80604052505050565b60006133cc826132f3565b91507fffffffffffffffffffffffffffffffffffffffffffffffffffffffffffffffff8214156133ff576133fe61343b565b5b600182019050919050565b6000613415826132f3565b9150613420836132f3565b9250826134305761342f61346a565b5b828206905092915050565b7f4e487b7100000000000000000000000000000000000000000000000000000000600052601160045260246000fd5b7f4e487b7100000000000000000000000000000000000000000000000000000000600052601260045260246000fd5b7f4e487b7100000000000000000000000000000000000000000000000000000000600052602260045260246000fd5b7f4e487b7100000000000000000000000000000000000000000000000000000000600052603260045260246000fd5b7f4e487b7100000000000000000000000000000000000000000000000000000000600052604160045260246000fd5b600080fd5b600080fd5b600080fd5b600080fd5b600080fd5b6000601f19601f8301169050919050565b7f4552433732313a207472616e7366657220746f206e6f6e20455243373231526560008201527f63656976657220696d706c656d656e7465720000000000000000000000000000602082015250565b7f4f776e61626c653a206e6577206f776e657220697320746865207a65726f206160008201527f6464726573730000000000000000000000000000000000000000000000000000602082015250565b7f4552433732313a207472616e736665722066726f6d20696e636f72726563742060008201527f6f776e6572000000000000000000000000000000000000000000000000000000602082015250565b7f4552433732313a20746f6b656e20616c7265616479206d696e74656400000000600082015250565b7f4552433732313a207472616e7366657220746f20746865207a65726f2061646460008201527f7265737300000000000000000000000000000000000000000000000000000000602082015250565b7f4552433732313a20617070726f766520746f2063616c6c657200000000000000600082015250565b7f4552433732313a206f70657261746f7220717565727920666f72206e6f6e657860008201527f697374656e7420746f6b656e0000000000000000000000000000000000000000602082015250565b7f4552433732313a20617070726f76652063616c6c6572206973206e6f74206f7760008201527f6e6572206e6f7220617070726f76656420666f7220616c6c0000000000000000602082015250565b7f4552433732313a2062616c616e636520717565727920666f7220746865207a6560008201527f726f206164647265737300000000000000000000000000000000000000000000602082015250565b7f4552433732313a206f776e657220717565727920666f72206e6f6e657869737460008201527f656e7420746f6b656e0000000000000000000000000000000000000000000000602082015250565b7f45524337323155524953746f726167653a2055524920736574206f66206e6f6e60008201527f6578697374656e7420746f6b656e000000000000000000000000000000000000602082015250565b7f496e697469616c697a61626c653a20636f6e747261637420697320616c72656160008201527f647920696e697469616c697a6564000000000000000000000000000000000000602082015250565b7f4552433732313a206d696e7420746f20746865207a65726f2061646472657373600082015250565b7f45524337323155524953746f726167653a2055524920717565727920666f722060008201527f6e6f6e6578697374656e7420746f6b656e000000000000000000000000000000602082015250565b7f4552433732313a20617070726f76656420717565727920666f72206e6f6e657860008201527f697374656e7420746f6b656e0000000000000000000000000000000000000000602082015250565b7f4f776e61626c653a2063616c6c6572206973206e6f7420746865206f776e6572600082015250565b7f4552433732314d657461646174613a2055524920717565727920666f72206e6f60008201527f6e6578697374656e7420746f6b656e0000000000000000000000000000000000602082015250565b7f4552433732313a20617070726f76616c20746f2063757272656e74206f776e6560008201527f7200000000000000000000000000000000000000000000000000000000000000602082015250565b7f4c656e677468206d69736d617463680000000000000000000000000000000000600082015250565b7f4552433732313a207472616e736665722063616c6c6572206973206e6f74206f60008201527f776e6572206e6f7220617070726f766564000000000000000000000000000000602082015250565b7f496e697469616c697a61626c653a20636f6e7472616374206973206e6f74206960008201527f6e697469616c697a696e67000000000000000000000000000000000000000000602082015250565b7f4e6f742061646d696e0000000000000000000000000000000000000000000000600082015250565b613b3f81613289565b8114613b4a57600080fd5b50565b613b568161329b565b8114613b6157600080fd5b50565b613b6d816132a7565b8114613b7857600080fd5b50565b613b84816132f3565b8114613b8f57600080fd5b5056fea2646970667358221220c78367958996bc2e39444f71e980f7387401fac10b730bd0bca87e885969352b64736f6c63430008060033",
	"devdoc": {
		"kind": "dev",
		"methods": {
			"approve(address,uint256)": {
				"details": "See {IERC721-approve}."
			},
			"balanceOf(address)": {
				"details": "See {IERC721-balanceOf}."
			},
			"getApproved(uint256)": {
				"details": "See {IERC721-getApproved}."
			},
			"isApprovedForAll(address,address)": {
				"details": "See {IERC721-isApprovedForAll}."
			},
			"name()": {
				"details": "See {IERC721Metadata-name}."
			},
			"owner()": {
				"details": "Returns the address of the current owner."
			},
			"ownerOf(uint256)": {
				"details": "See {IERC721-ownerOf}."
			},
			"renounceOwnership()": {
				"details": "Leaves the contract without owner. It will not be possible to call `onlyOwner` functions anymore. Can only be called by the current owner. NOTE: Renouncing ownership will leave the contract without an owner, thereby removing any functionality that is only available to the owner."
			},
			"safeTransferFrom(address,address,uint256)": {
				"details": "See {IERC721-safeTransferFrom}."
			},
			"safeTransferFrom(address,address,uint256,bytes)": {
				"details": "See {IERC721-safeTransferFrom}."
			},
			"setApprovalForAll(address,bool)": {
				"details": "See {IERC721-setApprovalForAll}."
			},
			"supportsInterface(bytes4)": {
				"details": "See {IERC165-supportsInterface}."
			},
			"symbol()": {
				"details": "See {IERC721Metadata-symbol}."
			},
			"tokenURI(uint256)": {
				"details": "See {IERC721Metadata-tokenURI}."
			},
			"transferFrom(address,address,uint256)": {
				"details": "See {IERC721-transferFrom}."
			},
			"transferOwnership(address)": {
				"details": "Transfers ownership of the contract to a new account (`newOwner`). Can only be called by the current owner."
			}
		},
		"version": 1
	},
	"userdoc": {
		"kind": "user",
		"methods": {},
		"version": 1
	},
	"storageLayout": {
		"storage": [
			{
				"astId": 130,
				"contract": "contracts/NFT.sol:NFT",
				"label": "_initialized",
				"offset": 0,
				"slot": "0",
				"type": "t_uint8"
			},
			{
				"astId": 133,
				"contract": "contracts/NFT.sol:NFT",
				"label": "_initializing",
				"offset": 1,
				"slot": "0",
				"type": "t_bool"
			},
			{
				"astId": 2110,
				"contract": "contracts/NFT.sol:NFT",
				"label": "__gap",
				"offset": 0,
				"slot": "1",
				"type": "t_array(t_uint256)50_storage"
			},
			{
				"astId": 2357,
				"contract": "contracts/NFT.sol:NFT",
				"label": "__gap",
				"offset": 0,
				"slot": "51",
				"type": "t_array(t_uint256)50_storage"
			},
			{
				"astId": 655,
				"contract": "contracts/NFT.sol:NFT",
				"label": "_name",
				"offset": 0,
				"slot": "101",
				"type": "t_string_storage"
			},
			{
				"astId": 657,
				"contract": "contracts/NFT.sol:NFT",
				"label": "_symbol",
				"offset": 0,
				"slot": "102",
				"type": "t_string_storage"
			},
			{
				"astId": 661,
				"contract": "contracts/NFT.sol:NFT",
				"label": "_owners",
				"offset": 0,
				"slot": "103",
				"type": "t_mapping(t_uint256,t_address)"
			},
			{
				"astId": 665,
				"contract": "contracts/NFT.sol:NFT",
				"label": "_balances",
				"offset": 0,
				"slot": "104",
				"type": "t_mapping(t_address,t_uint256)"
			},
			{
				"astId": 669,
				"contract": "contracts/NFT.sol:NFT",
				"label": "_tokenApprovals",
				"offset": 0,
				"slot": "105",
				"type": "t_mapping(t_uint256,t_address)"
			},
			{
				"astId": 675,
				"contract": "contracts/NFT.sol:NFT",
				"label": "_operatorApprovals",
				"offset": 0,
				"slot": "106",
				"type": "t_mapping(t_address,t_mapping(t_address,t_bool))"
			},
			{
				"astId": 1516,
				"contract": "contracts/NFT.sol:NFT",
				"label": "__gap",
				"offset": 0,
				"slot": "107",
				"type": "t_array(t_uint256)44_storage"
			},
			{
				"astId": 1679,
				"contract": "contracts/NFT.sol:NFT",
				"label": "_tokenURIs",
				"offset": 0,
				"slot": "151",
				"type": "t_mapping(t_uint256,t_string_storage)"
			},
			{
				"astId": 1798,
				"contract": "contracts/NFT.sol:NFT",
				"label": "__gap",
				"offset": 0,
				"slot": "152",
				"type": "t_array(t_uint256)49_storage"
			},
			{
				"astId": 10,
				"contract": "contracts/NFT.sol:NFT",
				"label": "_owner",
				"offset": 0,
				"slot": "201",
				"type": "t_address"
			},
			{
				"astId": 122,
				"contract": "contracts/NFT.sol:NFT",
				"label": "__gap",
				"offset": 0,
				"slot": "202",
				"type": "t_array(t_uint256)49_storage"
			},
			{
				"astId": 7430,
				"contract": "contracts/NFT.sol:NFT",
				"label": "admins",
				"offset": 0,
				"slot": "251",
				"type": "t_mapping(t_address,t_bool)"
			},
			{
				"astId": 7814,
				"contract": "contracts/NFT.sol:NFT",
				"label": "_counter",
				"offset": 0,
				"slot": "252",
				"type": "t_uint256"
			}
		],
		"types": {
			"t_address": {
				"encoding": "inplace",
				"label": "address",
				"numberOfBytes": "20"
			},
			"t_array(t_uint256)44_storage": {
				"base": "t_uint256",
				"encoding": "inplace",
				"label": "uint256[44]",
				"numberOfBytes": "1408"
			},
			"t_array(t_uint256)49_storage": {
				"base": "t_uint256",
				"encoding": "inplace",
				"label": "uint256[49]",
				"numberOfBytes": "1568"
			},
			"t_array(t_uint256)50_storage": {
				"base": "t_uint256",
				"encoding": "inplace",
				"label": "uint256[50]",
				"numberOfBytes": "1600"
			},
			"t_bool": {
				"encoding": "inplace",
				"label": "bool",
				"numberOfBytes": "1"
			},
			"t_mapping(t_address,t_bool)": {
				"encoding": "mapping",
				"key": "t_address",
				"label": "mapping(address => bool)",
				"numberOfBytes": "32",
				"value": "t_bool"
			},
			"t_mapping(t_address,t_mapping(t_address,t_bool))": {
				"encoding": "mapping",
				"key": "t_address",
				"label": "mapping(address => mapping(address => bool))",
				"numberOfBytes": "32",
				"value": "t_mapping(t_address,t_bool)"
			},
			"t_mapping(t_address,t_uint256)": {
				"encoding": "mapping",
				"key": "t_address",
				"label": "mapping(address => uint256)",
				"numberOfBytes": "32",
				"value": "t_uint256"
			},
			"t_mapping(t_uint256,t_address)": {
				"encoding": "mapping",
				"key": "t_uint256",
				"label": "mapping(uint256 => address)",
				"numberOfBytes": "32",
				"value": "t_address"
			},
			"t_mapping(t_uint256,t_string_storage)": {
				"encoding": "mapping",
				"key": "t_uint256",
				"label": "mapping(uint256 => string)",
				"numberOfBytes": "32",
				"value": "t_string_storage"
			},
			"t_string_storage": {
				"encoding": "bytes",
				"label": "string",
				"numberOfBytes": "32"
			},
			"t_uint256": {
				"encoding": "inplace",
				"label": "uint256",
				"numberOfBytes": "32"
			},
			"t_uint8": {
				"encoding": "inplace",
				"label": "uint8",
				"numberOfBytes": "1"
			}
		}
	}
}