{
  "address": "0x674F858B58bFbbAaFc3AEB414bF7687de4dDbA15",
  "abi": [
    {
      "anonymous": false,
      "inputs": [
        {
          "components": [
            {
              "internalType": "uint256",
              "name": "tokenId",
              "type": "uint256"
            },
            {
              "internalType": "address",
              "name": "owner",
              "type": "address"
            },
            {
              "internalType": "uint256",
              "name": "price",
              "type": "uint256"
            },
            {
              "internalType": "uint256",
              "name": "untill",
              "type": "uint256"
            },
            {
              "internalType": "contract IERC20Upgradeable",
              "name": "currency",
              "type": "address"
            }
          ],
          "indexed": false,
          "internalType": "struct PrimarySale.CreatedSale",
          "name": "c",
          "type": "tuple"
        }
      ],
      "name": "CreatePrimarySale",
      "type": "event"
    },
    {
      "anonymous": false,
      "inputs": [
        {
          "indexed": false,
          "internalType": "uint8",
          "name": "version",
          "type": "uint8"
        }
      ],
      "name": "Initialized",
      "type": "event"
    },
    {
      "anonymous": false,
      "inputs": [
        {
          "indexed": true,
          "internalType": "address",
          "name": "previousOwner",
          "type": "address"
        },
        {
          "indexed": true,
          "internalType": "address",
          "name": "newOwner",
          "type": "address"
        }
      ],
      "name": "OwnershipTransferred",
      "type": "event"
    },
    {
      "anonymous": false,
      "inputs": [
        {
          "indexed": false,
          "internalType": "address",
          "name": "admin",
          "type": "address"
        },
        {
          "indexed": false,
          "internalType": "bool",
          "name": "enabled",
          "type": "bool"
        }
      ],
      "name": "SetAdmin",
      "type": "event"
    },
    {
      "anonymous": false,
      "inputs": [
        {
          "indexed": false,
          "internalType": "contract IERC20Upgradeable",
          "name": "currency",
          "type": "address"
        },
        {
          "indexed": false,
          "internalType": "uint256",
          "name": "price",
          "type": "uint256"
        }
      ],
      "name": "SetCurrency",
      "type": "event"
    },
    {
      "inputs": [
        {
          "internalType": "address",
          "name": "",
          "type": "address"
        }
      ],
      "name": "admins",
      "outputs": [
        {
          "internalType": "bool",
          "name": "",
          "type": "bool"
        }
      ],
      "stateMutability": "view",
      "type": "function"
    },
    {
      "inputs": [
        {
          "components": [
            {
              "internalType": "uint256",
              "name": "tokenId",
              "type": "uint256"
            },
            {
              "internalType": "address",
              "name": "owner",
              "type": "address"
            },
            {
              "internalType": "uint256",
              "name": "price",
              "type": "uint256"
            },
            {
              "internalType": "uint256",
              "name": "untill",
              "type": "uint256"
            },
            {
              "internalType": "contract IERC20Upgradeable",
              "name": "currency",
              "type": "address"
            }
          ],
          "internalType": "struct PrimarySale.CreatedSale",
          "name": "_createdSale",
          "type": "tuple"
        }
      ],
      "name": "createSale",
      "outputs": [],
      "stateMutability": "nonpayable",
      "type": "function"
    },
    {
      "inputs": [
        {
          "internalType": "contract IERC20Upgradeable",
          "name": "",
          "type": "address"
        }
      ],
      "name": "currencies",
      "outputs": [
        {
          "internalType": "uint256",
          "name": "",
          "type": "uint256"
        }
      ],
      "stateMutability": "view",
      "type": "function"
    },
    {
      "inputs": [
        {
          "internalType": "address",
          "name": "user",
          "type": "address"
        }
      ],
      "name": "getCreatedSales",
      "outputs": [
        {
          "internalType": "uint256[]",
          "name": "",
          "type": "uint256[]"
        }
      ],
      "stateMutability": "view",
      "type": "function"
    },
    {
      "inputs": [
        {
          "internalType": "contract IERC721",
          "name": "token_",
          "type": "address"
        },
        {
          "internalType": "contract IERC20Upgradeable[]",
          "name": "_currencies",
          "type": "address[]"
        },
        {
          "internalType": "uint256[]",
          "name": "_prices",
          "type": "uint256[]"
        }
      ],
      "name": "initialize",
      "outputs": [],
      "stateMutability": "nonpayable",
      "type": "function"
    },
    {
      "inputs": [
        {
          "internalType": "uint256",
          "name": "tokenId",
          "type": "uint256"
        }
      ],
      "name": "makeSale",
      "outputs": [],
      "stateMutability": "nonpayable",
      "type": "function"
    },
    {
      "inputs": [],
      "name": "owner",
      "outputs": [
        {
          "internalType": "address",
          "name": "",
          "type": "address"
        }
      ],
      "stateMutability": "view",
      "type": "function"
    },
    {
      "inputs": [
        {
          "internalType": "contract IERC20Upgradeable",
          "name": "currency",
          "type": "address"
        },
        {
          "internalType": "uint256",
          "name": "numberOfTokens",
          "type": "uint256"
        }
      ],
      "name": "purchase",
      "outputs": [
        {
          "internalType": "uint256[]",
          "name": "tokenIds",
          "type": "uint256[]"
        }
      ],
      "stateMutability": "nonpayable",
      "type": "function"
    },
    {
      "inputs": [],
      "name": "renounceOwnership",
      "outputs": [],
      "stateMutability": "nonpayable",
      "type": "function"
    },
    {
      "inputs": [
        {
          "internalType": "uint256",
          "name": "",
          "type": "uint256"
        }
      ],
      "name": "saleMapping",
      "outputs": [
        {
          "internalType": "uint256",
          "name": "tokenId",
          "type": "uint256"
        },
        {
          "internalType": "address",
          "name": "owner",
          "type": "address"
        },
        {
          "internalType": "uint256",
          "name": "price",
          "type": "uint256"
        },
        {
          "internalType": "uint256",
          "name": "untill",
          "type": "uint256"
        },
        {
          "internalType": "contract IERC20Upgradeable",
          "name": "currency",
          "type": "address"
        }
      ],
      "stateMutability": "view",
      "type": "function"
    },
    {
      "inputs": [
        {
          "internalType": "address",
          "name": "admin",
          "type": "address"
        },
        {
          "internalType": "bool",
          "name": "enabled",
          "type": "bool"
        }
      ],
      "name": "setAdmin",
      "outputs": [],
      "stateMutability": "nonpayable",
      "type": "function"
    },
    {
      "inputs": [
        {
          "internalType": "contract IERC20Upgradeable",
          "name": "currency",
          "type": "address"
        },
        {
          "internalType": "uint256",
          "name": "price",
          "type": "uint256"
        }
      ],
      "name": "setCurrency",
      "outputs": [],
      "stateMutability": "nonpayable",
      "type": "function"
    },
    {
      "inputs": [],
      "name": "token",
      "outputs": [
        {
          "internalType": "contract IERC721",
          "name": "",
          "type": "address"
        }
      ],
      "stateMutability": "view",
      "type": "function"
    },
    {
      "inputs": [
        {
          "internalType": "address",
          "name": "newOwner",
          "type": "address"
        }
      ],
      "name": "transferOwnership",
      "outputs": [],
      "stateMutability": "nonpayable",
      "type": "function"
    }
  ],
  "transactionHash": "0xb077fb93109ceb13ee7bdb7c0ab0cae4aa8dd37097f9673d106873087ca9d4f6",
  "args": [],
  "numDeployments": 1,
  "solcInputHash": "64ab81ce5a71cff8452f870e4853d578",
  "bytecode": "0x608060405234801561001057600080fd5b50613079806100206000396000f3fe608060405234801561001057600080fd5b50600436106100ea5760003560e01c80637935cc6c1161008c578063a46194af11610066578063a46194af1461025f578063f2fde38b1461027b578063fc0c546a14610297578063ff1d5752146102b5576100ea565b80637935cc6c146101e15780638da5cb5b146102115780638de932221461022f576100ea565b8063429b62e5116100c8578063429b62e51461015b5780634b0bddd21461018b5780636036cba3146101a7578063715018a6146101d7576100ea565b8063034e8052146100ef57806327283b701461010b578063364083f41461013f575b600080fd5b610109600480360381019061010491906120e4565b6102d1565b005b61012560048036038101906101209190612111565b6107c7565b6040516101369594939291906128d6565b60405180910390f35b61015960048036038101906101549190612111565b61083d565b005b61017560048036038101906101709190611f25565b610c1e565b6040516101829190612624565b60405180910390f35b6101a560048036038101906101a09190611f7f565b610c3e565b005b6101c160048036038101906101bc9190611fec565b610d4e565b6040516101ce91906128bb565b60405180910390f35b6101df610d66565b005b6101fb60048036038101906101f69190611f25565b610dee565b6040516102089190612602565b60405180910390f35b610219610e3e565b604051610226919061255e565b60405180910390f35b61024960048036038101906102449190612019565b610e68565b6040516102569190612602565b60405180910390f35b61027960048036038101906102749190612019565b6110f9565b005b61029560048036038101906102909190611f25565b61120d565b005b61029f611305565b6040516102ac9190612668565b60405180910390f35b6102cf60048036038101906102ca9190612059565b61132b565b005b42816060015111610317576040517f08c379a000000000000000000000000000000000000000000000000000000000815260040161030e90612700565b60405180910390fd5b600060986000836080015173ffffffffffffffffffffffffffffffffffffffff1673ffffffffffffffffffffffffffffffffffffffff16815260200190815260200160002054141561039e576040517f08c379a0000000000000000000000000000000000000000000000000000000008152600401610395906126e0565b60405180910390fd5b6103a66114df565b73ffffffffffffffffffffffffffffffffffffffff16609b60009054906101000a900473ffffffffffffffffffffffffffffffffffffffff1673ffffffffffffffffffffffffffffffffffffffff16636352211e83600001516040518263ffffffff1660e01b815260040161041b91906128bb565b60206040518083038186803b15801561043357600080fd5b505afa158015610447573d6000803e3d6000fd5b505050506040513d601f19601f8201168201806040525081019061046b9190611f52565b73ffffffffffffffffffffffffffffffffffffffff16146104c1576040517f08c379a00000000000000000000000000000000000000000000000000000000081526004016104b8906127c0565b60405180910390fd5b609b60009054906101000a900473ffffffffffffffffffffffffffffffffffffffff1673ffffffffffffffffffffffffffffffffffffffff1663e985e9c56105076114df565b306040518363ffffffff1660e01b8152600401610525929190612579565b60206040518083038186803b15801561053d57600080fd5b505afa158015610551573d6000803e3d6000fd5b505050506040513d601f19601f820116820180604052508101906105759190611fbf565b6105b4576040517f08c379a00000000000000000000000000000000000000000000000000000000081526004016105ab906127a0565b60405180910390fd5b609b60009054906101000a900473ffffffffffffffffffffffffffffffffffffffff1673ffffffffffffffffffffffffffffffffffffffff16636a6278426105fa6114df565b6040518263ffffffff1660e01b8152600401610616919061255e565b602060405180830381600087803b15801561063057600080fd5b505af1158015610644573d6000803e3d6000fd5b505050506040513d601f19601f82011682018060405250810190610668919061213e565b506106c581600001516099600061067d6114df565b73ffffffffffffffffffffffffffffffffffffffff1673ffffffffffffffffffffffffffffffffffffffff1681526020019081526020016000206114e790919063ffffffff16565b5080609a6000836000015181526020019081526020016000206000820151816000015560208201518160010160006101000a81548173ffffffffffffffffffffffffffffffffffffffff021916908373ffffffffffffffffffffffffffffffffffffffff160217905550604082015181600201556060820151816003015560808201518160040160006101000a81548173ffffffffffffffffffffffffffffffffffffffff021916908373ffffffffffffffffffffffffffffffffffffffff1602179055509050507f94513cbc4ef878211fbe5cad47f309c1518e146572b9edd980331aaead104d2f816040516107bc91906128a0565b60405180910390a150565b609a6020528060005260406000206000915090508060000154908060010160009054906101000a900473ffffffffffffffffffffffffffffffffffffffff16908060020154908060030154908060040160009054906101000a900473ffffffffffffffffffffffffffffffffffffffff16905085565b6000609a60008381526020019081526020016000206040518060a0016040529081600082015481526020016001820160009054906101000a900473ffffffffffffffffffffffffffffffffffffffff1673ffffffffffffffffffffffffffffffffffffffff1673ffffffffffffffffffffffffffffffffffffffff16815260200160028201548152602001600382015481526020016004820160009054906101000a900473ffffffffffffffffffffffffffffffffffffffff1673ffffffffffffffffffffffffffffffffffffffff1673ffffffffffffffffffffffffffffffffffffffff168152505090508060600151421061096f576040517f08c379a000000000000000000000000000000000000000000000000000000000815260040161096690612740565b60405180910390fd5b609b60009054906101000a900473ffffffffffffffffffffffffffffffffffffffff1673ffffffffffffffffffffffffffffffffffffffff166323b872dd82602001513084600001516040518463ffffffff1660e01b81526004016109d6939291906125a2565b600060405180830381600087803b1580156109f057600080fd5b505af1158015610a04573d6000803e3d6000fd5b50505050806080015173ffffffffffffffffffffffffffffffffffffffff166323b872dd610a306114df565b836020015184604001516040518463ffffffff1660e01b8152600401610a58939291906125a2565b602060405180830381600087803b158015610a7257600080fd5b505af1158015610a86573d6000803e3d6000fd5b505050506040513d601f19601f82011682018060405250810190610aaa9190611fbf565b50609b60009054906101000a900473ffffffffffffffffffffffffffffffffffffffff1673ffffffffffffffffffffffffffffffffffffffff166323b872dd30836020015184600001516040518463ffffffff1660e01b8152600401610b12939291906125a2565b600060405180830381600087803b158015610b2c57600080fd5b505af1158015610b40573d6000803e3d6000fd5b50505050609a60008381526020019081526020016000206000808201600090556001820160006101000a81549073ffffffffffffffffffffffffffffffffffffffff0219169055600282016000905560038201600090556004820160006101000a81549073ffffffffffffffffffffffffffffffffffffffff02191690555050610c19816000015160996000846020015173ffffffffffffffffffffffffffffffffffffffff1673ffffffffffffffffffffffffffffffffffffffff16815260200190815260200160002061150190919063ffffffff16565b505050565b60656020528060005260406000206000915054906101000a900460ff1681565b610c466114df565b73ffffffffffffffffffffffffffffffffffffffff16610c64610e3e565b73ffffffffffffffffffffffffffffffffffffffff1614610cba576040517f08c379a0000000000000000000000000000000000000000000000000000000008152600401610cb190612780565b60405180910390fd5b80606560008473ffffffffffffffffffffffffffffffffffffffff1673ffffffffffffffffffffffffffffffffffffffff16815260200190815260200160002060006101000a81548160ff0219169083151502179055507f55a5194bc0174fcaf12b2978bef43911466bf63b34db8d1dd1a0d5dcd5c41bea8282604051610d429291906125d9565b60405180910390a15050565b60986020528060005260406000206000915090505481565b610d6e6114df565b73ffffffffffffffffffffffffffffffffffffffff16610d8c610e3e565b73ffffffffffffffffffffffffffffffffffffffff1614610de2576040517f08c379a0000000000000000000000000000000000000000000000000000000008152600401610dd990612780565b60405180910390fd5b610dec600061151b565b565b6060610e37609960008473ffffffffffffffffffffffffffffffffffffffff1673ffffffffffffffffffffffffffffffffffffffff1681526020019081526020016000206115e1565b9050919050565b6000603360009054906101000a900473ffffffffffffffffffffffffffffffffffffffff16905090565b606060026066541415610eb0576040517f08c379a0000000000000000000000000000000000000000000000000000000008152600401610ea790612840565b60405180910390fd5b60026066819055506000609860008573ffffffffffffffffffffffffffffffffffffffff1673ffffffffffffffffffffffffffffffffffffffff168152602001908152602001600020541415610f3b576040517f08c379a0000000000000000000000000000000000000000000000000000000008152600401610f32906126e0565b60405180910390fd5b610fae610f466114df565b30609860008773ffffffffffffffffffffffffffffffffffffffff1673ffffffffffffffffffffffffffffffffffffffff168152602001908152602001600020548673ffffffffffffffffffffffffffffffffffffffff16611602909392919063ffffffff16565b8167ffffffffffffffff811115610fc857610fc7612c52565b5b604051908082528060200260200182016040528015610ff65781602001602082028036833780820191505090505b50905060005b828110156110ea57609b60009054906101000a900473ffffffffffffffffffffffffffffffffffffffff1673ffffffffffffffffffffffffffffffffffffffff16636a62784261104a6114df565b6040518263ffffffff1660e01b8152600401611066919061255e565b602060405180830381600087803b15801561108057600080fd5b505af1158015611094573d6000803e3d6000fd5b505050506040513d601f19601f820116820180604052508101906110b8919061213e565b8282815181106110cb576110ca612c23565b5b60200260200101818152505080806110e290612b7c565b915050610ffc565b50600160668190555092915050565b606560006111056114df565b73ffffffffffffffffffffffffffffffffffffffff1673ffffffffffffffffffffffffffffffffffffffff16815260200190815260200160002060009054906101000a900460ff1661118c576040517f08c379a000000000000000000000000000000000000000000000000000000000815260040161118390612860565b60405180910390fd5b80609860008473ffffffffffffffffffffffffffffffffffffffff1673ffffffffffffffffffffffffffffffffffffffff168152602001908152602001600020819055507fd76cbd7d1007b39f0b4176db391f50665caf39f806b914173746a6881772d4f2828260405161120192919061263f565b60405180910390a15050565b6112156114df565b73ffffffffffffffffffffffffffffffffffffffff16611233610e3e565b73ffffffffffffffffffffffffffffffffffffffff1614611289576040517f08c379a000000000000000000000000000000000000000000000000000000000815260040161128090612780565b60405180910390fd5b600073ffffffffffffffffffffffffffffffffffffffff168173ffffffffffffffffffffffffffffffffffffffff1614156112f9576040517f08c379a00000000000000000000000000000000000000000000000000000000081526004016112f0906126c0565b60405180910390fd5b6113028161151b565b50565b609b60009054906101000a900473ffffffffffffffffffffffffffffffffffffffff1681565b6000611337600161168b565b9050801561135b576001600060016101000a81548160ff0219169083151502179055505b83609b60006101000a81548173ffffffffffffffffffffffffffffffffffffffff021916908373ffffffffffffffffffffffffffffffffffffffff1602179055506113a461177b565b81518351146113e8576040517f08c379a00000000000000000000000000000000000000000000000000000000081526004016113df90612880565b60405180910390fd5b60005b835181101561147f5782818151811061140757611406612c23565b5b60200260200101516098600086848151811061142657611425612c23565b5b602002602001015173ffffffffffffffffffffffffffffffffffffffff1673ffffffffffffffffffffffffffffffffffffffff16815260200190815260200160002081905550808061147790612b7c565b9150506113eb565b5080156114d95760008060016101000a81548160ff0219169083151502179055507f7f26b83ff96e1f2b6a682f133852f6798a09c465da95921460cefb384740249860016040516114d09190612683565b60405180910390a15b50505050565b600033905090565b60006114f9836000018360001b6117d4565b905092915050565b6000611513836000018360001b611844565b905092915050565b6000603360009054906101000a900473ffffffffffffffffffffffffffffffffffffffff16905081603360006101000a81548173ffffffffffffffffffffffffffffffffffffffff021916908373ffffffffffffffffffffffffffffffffffffffff1602179055508173ffffffffffffffffffffffffffffffffffffffff168173ffffffffffffffffffffffffffffffffffffffff167f8be0079c531659141344cd1fd0a4f28419497f9722a3daafe3b4186f6b6457e060405160405180910390a35050565b606060006115f183600001611958565b905060608190508092505050919050565b611685846323b872dd60e01b858585604051602401611623939291906125a2565b604051602081830303815290604052907bffffffffffffffffffffffffffffffffffffffffffffffffffffffff19166020820180517bffffffffffffffffffffffffffffffffffffffffffffffffffffffff83818316178352505050506119b4565b50505050565b60008060019054906101000a900460ff16156117025760018260ff161480156116ba57506116b830611a7b565b155b6116f9576040517f08c379a00000000000000000000000000000000000000000000000000000000081526004016116f090612760565b60405180910390fd5b60009050611776565b8160ff1660008054906101000a900460ff1660ff1610611757576040517f08c379a000000000000000000000000000000000000000000000000000000000815260040161174e90612760565b60405180910390fd5b816000806101000a81548160ff021916908360ff160217905550600190505b919050565b600060019054906101000a900460ff166117ca576040517f08c379a00000000000000000000000000000000000000000000000000000000081526004016117c190612800565b60405180910390fd5b6117d2611a9e565b565b60006117e08383611aff565b61183957826000018290806001815401808255809150506001900390600052602060002001600090919091909150558260000180549050836001016000848152602001908152602001600020819055506001905061183e565b600090505b92915050565b6000808360010160008481526020019081526020016000205490506000811461194c5760006001826118769190612a11565b905060006001866000018054905061188e9190612a11565b90508181146118fd5760008660000182815481106118af576118ae612c23565b5b90600052602060002001549050808760000184815481106118d3576118d2612c23565b5b90600052602060002001819055508387600101600083815260200190815260200160002081905550505b8560000180548061191157611910612bf4565b5b600190038181906000526020600020016000905590558560010160008681526020019081526020016000206000905560019350505050611952565b60009150505b92915050565b6060816000018054806020026020016040519081016040528092919081815260200182805480156119a857602002820191906000526020600020905b815481526020019060010190808311611994575b50505050509050919050565b6000611a16826040518060400160405280602081526020017f5361666545524332303a206c6f772d6c6576656c2063616c6c206661696c65648152508573ffffffffffffffffffffffffffffffffffffffff16611b229092919063ffffffff16565b9050600081511115611a765780806020019051810190611a369190611fbf565b611a75576040517f08c379a0000000000000000000000000000000000000000000000000000000008152600401611a6c90612820565b60405180910390fd5b5b505050565b6000808273ffffffffffffffffffffffffffffffffffffffff163b119050919050565b600060019054906101000a900460ff16611aed576040517f08c379a0000000000000000000000000000000000000000000000000000000008152600401611ae490612800565b60405180910390fd5b611afd611af86114df565b61151b565b565b600080836001016000848152602001908152602001600020541415905092915050565b6060611b318484600085611b3a565b90509392505050565b606082471015611b7f576040517f08c379a0000000000000000000000000000000000000000000000000000000008152600401611b7690612720565b60405180910390fd5b611b8885611a7b565b611bc7576040517f08c379a0000000000000000000000000000000000000000000000000000000008152600401611bbe906127e0565b60405180910390fd5b6000808673ffffffffffffffffffffffffffffffffffffffff168587604051611bf09190612547565b60006040518083038185875af1925050503d8060008114611c2d576040519150601f19603f3d011682016040523d82523d6000602084013e611c32565b606091505b5091509150611c42828286611c4e565b92505050949350505050565b60608315611c5e57829050611cae565b600083511115611c715782518084602001fd5b816040517f08c379a0000000000000000000000000000000000000000000000000000000008152600401611ca5919061269e565b60405180910390fd5b9392505050565b6000611cc8611cc38461294e565b612929565b90508083825260208201905082856020860282011115611ceb57611cea612c8b565b5b60005b85811015611d1b5781611d018882611e45565b845260208401935060208301925050600181019050611cee565b5050509392505050565b6000611d38611d338461297a565b612929565b90508083825260208201905082856020860282011115611d5b57611d5a612c8b565b5b60005b85811015611d8b5781611d718882611efb565b845260208401935060208301925050600181019050611d5e565b5050509392505050565b600081359050611da481612fd0565b92915050565b600081519050611db981612fd0565b92915050565b600082601f830112611dd457611dd3612c81565b5b8135611de4848260208601611cb5565b91505092915050565b600082601f830112611e0257611e01612c81565b5b8135611e12848260208601611d25565b91505092915050565b600081359050611e2a81612fe7565b92915050565b600081519050611e3f81612fe7565b92915050565b600081359050611e5481612ffe565b92915050565b600081359050611e6981613015565b92915050565b600060a08284031215611e8557611e84612c86565b5b611e8f60a0612929565b90506000611e9f84828501611efb565b6000830152506020611eb384828501611d95565b6020830152506040611ec784828501611efb565b6040830152506060611edb84828501611efb565b6060830152506080611eef84828501611e45565b60808301525092915050565b600081359050611f0a8161302c565b92915050565b600081519050611f1f8161302c565b92915050565b600060208284031215611f3b57611f3a612c95565b5b6000611f4984828501611d95565b91505092915050565b600060208284031215611f6857611f67612c95565b5b6000611f7684828501611daa565b91505092915050565b60008060408385031215611f9657611f95612c95565b5b6000611fa485828601611d95565b9250506020611fb585828601611e1b565b9150509250929050565b600060208284031215611fd557611fd4612c95565b5b6000611fe384828501611e30565b91505092915050565b60006020828403121561200257612001612c95565b5b600061201084828501611e45565b91505092915050565b600080604083850312156120305761202f612c95565b5b600061203e85828601611e45565b925050602061204f85828601611efb565b9150509250929050565b60008060006060848603121561207257612071612c95565b5b600061208086828701611e5a565b935050602084013567ffffffffffffffff8111156120a1576120a0612c90565b5b6120ad86828701611dbf565b925050604084013567ffffffffffffffff8111156120ce576120cd612c90565b5b6120da86828701611ded565b9150509250925092565b600060a082840312156120fa576120f9612c95565b5b600061210884828501611e6f565b91505092915050565b60006020828403121561212757612126612c95565b5b600061213584828501611efb565b91505092915050565b60006020828403121561215457612153612c95565b5b600061216284828501611f10565b91505092915050565b60006121778383612529565b60208301905092915050565b61218c81612a45565b82525050565b61219b81612a45565b82525050565b60006121ac826129b6565b6121b681856129e4565b93506121c1836129a6565b8060005b838110156121f25781516121d9888261216b565b97506121e4836129d7565b9250506001810190506121c5565b5085935050505092915050565b61220881612a57565b82525050565b6000612219826129c1565b61222381856129f5565b9350612233818560208601612b18565b80840191505092915050565b61224881612abe565b82525050565b61225781612abe565b82525050565b61226681612ae2565b82525050565b61227581612b06565b82525050565b6000612286826129cc565b6122908185612a00565b93506122a0818560208601612b18565b6122a981612c9a565b840191505092915050565b60006122c1602683612a00565b91506122cc82612cab565b604082019050919050565b60006122e4601083612a00565b91506122ef82612cfa565b602082019050919050565b6000612307600c83612a00565b915061231282612d23565b602082019050919050565b600061232a602683612a00565b915061233582612d4c565b604082019050919050565b600061234d600e83612a00565b915061235882612d9b565b602082019050919050565b6000612370602e83612a00565b915061237b82612dc4565b604082019050919050565b6000612393602083612a00565b915061239e82612e13565b602082019050919050565b60006123b6600c83612a00565b91506123c182612e3c565b602082019050919050565b60006123d9600983612a00565b91506123e482612e65565b602082019050919050565b60006123fc601d83612a00565b915061240782612e8e565b602082019050919050565b600061241f602b83612a00565b915061242a82612eb7565b604082019050919050565b6000612442602a83612a00565b915061244d82612f06565b604082019050919050565b6000612465601f83612a00565b915061247082612f55565b602082019050919050565b6000612488600983612a00565b915061249382612f7e565b602082019050919050565b60006124ab600683612a00565b91506124b682612fa7565b602082019050919050565b60a0820160008201516124d76000850182612529565b5060208201516124ea6020850182612183565b5060408201516124fd6040850182612529565b5060608201516125106060850182612529565b506080820151612523608085018261223f565b50505050565b61253281612aa7565b82525050565b61254181612aa7565b82525050565b6000612553828461220e565b915081905092915050565b60006020820190506125736000830184612192565b92915050565b600060408201905061258e6000830185612192565b61259b6020830184612192565b9392505050565b60006060820190506125b76000830186612192565b6125c46020830185612192565b6125d16040830184612538565b949350505050565b60006040820190506125ee6000830185612192565b6125fb60208301846121ff565b9392505050565b6000602082019050818103600083015261261c81846121a1565b905092915050565b600060208201905061263960008301846121ff565b92915050565b6000604082019050612654600083018561224e565b6126616020830184612538565b9392505050565b600060208201905061267d600083018461225d565b92915050565b6000602082019050612698600083018461226c565b92915050565b600060208201905081810360008301526126b8818461227b565b905092915050565b600060208201905081810360008301526126d9816122b4565b9050919050565b600060208201905081810360008301526126f9816122d7565b9050919050565b60006020820190508181036000830152612719816122fa565b9050919050565b600060208201905081810360008301526127398161231d565b9050919050565b6000602082019050818103600083015261275981612340565b9050919050565b6000602082019050818103600083015261277981612363565b9050919050565b6000602082019050818103600083015261279981612386565b9050919050565b600060208201905081810360008301526127b9816123a9565b9050919050565b600060208201905081810360008301526127d9816123cc565b9050919050565b600060208201905081810360008301526127f9816123ef565b9050919050565b6000602082019050818103600083015261281981612412565b9050919050565b6000602082019050818103600083015261283981612435565b9050919050565b6000602082019050818103600083015261285981612458565b9050919050565b600060208201905081810360008301526128798161247b565b9050919050565b600060208201905081810360008301526128998161249e565b9050919050565b600060a0820190506128b560008301846124c1565b92915050565b60006020820190506128d06000830184612538565b92915050565b600060a0820190506128eb6000830188612538565b6128f86020830187612192565b6129056040830186612538565b6129126060830185612538565b61291f608083018461224e565b9695505050505050565b6000612933612944565b905061293f8282612b4b565b919050565b6000604051905090565b600067ffffffffffffffff82111561296957612968612c52565b5b602082029050602081019050919050565b600067ffffffffffffffff82111561299557612994612c52565b5b602082029050602081019050919050565b6000819050602082019050919050565b600081519050919050565b600081519050919050565b600081519050919050565b6000602082019050919050565b600082825260208201905092915050565b600081905092915050565b600082825260208201905092915050565b6000612a1c82612aa7565b9150612a2783612aa7565b925082821015612a3a57612a39612bc5565b5b828203905092915050565b6000612a5082612a87565b9050919050565b60008115159050919050565b6000612a6e82612a45565b9050919050565b6000612a8082612a45565b9050919050565b600073ffffffffffffffffffffffffffffffffffffffff82169050919050565b6000819050919050565b600060ff82169050919050565b6000612ac982612ad0565b9050919050565b6000612adb82612a87565b9050919050565b6000612aed82612af4565b9050919050565b6000612aff82612a87565b9050919050565b6000612b1182612ab1565b9050919050565b60005b83811015612b36578082015181840152602081019050612b1b565b83811115612b45576000848401525b50505050565b612b5482612c9a565b810181811067ffffffffffffffff82111715612b7357612b72612c52565b5b80604052505050565b6000612b8782612aa7565b91507fffffffffffffffffffffffffffffffffffffffffffffffffffffffffffffffff821415612bba57612bb9612bc5565b5b600182019050919050565b7f4e487b7100000000000000000000000000000000000000000000000000000000600052601160045260246000fd5b7f4e487b7100000000000000000000000000000000000000000000000000000000600052603160045260246000fd5b7f4e487b7100000000000000000000000000000000000000000000000000000000600052603260045260246000fd5b7f4e487b7100000000000000000000000000000000000000000000000000000000600052604160045260246000fd5b600080fd5b600080fd5b600080fd5b600080fd5b600080fd5b6000601f19601f8301169050919050565b7f4f776e61626c653a206e6577206f776e657220697320746865207a65726f206160008201527f6464726573730000000000000000000000000000000000000000000000000000602082015250565b7f496e76616c69642063757272656e637900000000000000000000000000000000600082015250565b7f496e76616c69642074696d650000000000000000000000000000000000000000600082015250565b7f416464726573733a20696e73756666696369656e742062616c616e636520666f60008201527f722063616c6c0000000000000000000000000000000000000000000000000000602082015250565b7f53616c652066696e69736865642e000000000000000000000000000000000000600082015250565b7f496e697469616c697a61626c653a20636f6e747261637420697320616c72656160008201527f647920696e697469616c697a6564000000000000000000000000000000000000602082015250565b7f4f776e61626c653a2063616c6c6572206973206e6f7420746865206f776e6572600082015250565b7f53616c6520637265617465640000000000000000000000000000000000000000600082015250565b7f4e6f74206f776e65720000000000000000000000000000000000000000000000600082015250565b7f416464726573733a2063616c6c20746f206e6f6e2d636f6e7472616374000000600082015250565b7f496e697469616c697a61626c653a20636f6e7472616374206973206e6f74206960008201527f6e697469616c697a696e67000000000000000000000000000000000000000000602082015250565b7f5361666545524332303a204552433230206f7065726174696f6e20646964206e60008201527f6f74207375636365656400000000000000000000000000000000000000000000602082015250565b7f5265656e7472616e637947756172643a207265656e7472616e742063616c6c00600082015250565b7f4e6f742061646d696e0000000000000000000000000000000000000000000000600082015250565b7f4c656e6774680000000000000000000000000000000000000000000000000000600082015250565b612fd981612a45565b8114612fe457600080fd5b50565b612ff081612a57565b8114612ffb57600080fd5b50565b61300781612a63565b811461301257600080fd5b50565b61301e81612a75565b811461302957600080fd5b50565b61303581612aa7565b811461304057600080fd5b5056fea2646970667358221220132d7c739afecb12adb6b41e1804a5c6685c220ffb3162ea7ec382a087b14b8964736f6c63430008060033",
  "devdoc": {
    "kind": "dev",
    "methods": {
      "owner()": {
        "details": "Returns the address of the current owner."
      },
      "renounceOwnership()": {
        "details": "Leaves the contract without owner. It will not be possible to call `onlyOwner` functions anymore. Can only be called by the current owner. NOTE: Renouncing ownership will leave the contract without an owner, thereby removing any functionality that is only available to the owner."
      },
      "transferOwnership(address)": {
        "details": "Transfers ownership of the contract to a new account (`newOwner`). Can only be called by the current owner."
      }
    },
    "version": 1
  },
  "userdoc": {
    "kind": "user",
    "methods": {},
    "version": 1
  },
  "storageLayout": {
    "storage": [
      {
        "astId": 130,
        "contract": "contracts/PrimarySale.sol:PrimarySale",
        "label": "_initialized",
        "offset": 0,
        "slot": "0",
        "type": "t_uint8"
      },
      {
        "astId": 133,
        "contract": "contracts/PrimarySale.sol:PrimarySale",
        "label": "_initializing",
        "offset": 1,
        "slot": "0",
        "type": "t_bool"
      },
      {
        "astId": 910,
        "contract": "contracts/PrimarySale.sol:PrimarySale",
        "label": "__gap",
        "offset": 0,
        "slot": "1",
        "type": "t_array(t_uint256)50_storage"
      },
      {
        "astId": 10,
        "contract": "contracts/PrimarySale.sol:PrimarySale",
        "label": "_owner",
        "offset": 0,
        "slot": "51",
        "type": "t_address"
      },
      {
        "astId": 122,
        "contract": "contracts/PrimarySale.sol:PrimarySale",
        "label": "__gap",
        "offset": 0,
        "slot": "52",
        "type": "t_array(t_uint256)49_storage"
      },
      {
        "astId": 5971,
        "contract": "contracts/PrimarySale.sol:PrimarySale",
        "label": "admins",
        "offset": 0,
        "slot": "101",
        "type": "t_mapping(t_address,t_bool)"
      },
      {
        "astId": 279,
        "contract": "contracts/PrimarySale.sol:PrimarySale",
        "label": "_status",
        "offset": 0,
        "slot": "102",
        "type": "t_uint256"
      },
      {
        "astId": 323,
        "contract": "contracts/PrimarySale.sol:PrimarySale",
        "label": "__gap",
        "offset": 0,
        "slot": "103",
        "type": "t_array(t_uint256)49_storage"
      },
      {
        "astId": 6047,
        "contract": "contracts/PrimarySale.sol:PrimarySale",
        "label": "currencies",
        "offset": 0,
        "slot": "152",
        "type": "t_mapping(t_contract(IERC20Upgradeable)402,t_uint256)"
      },
      {
        "astId": 6064,
        "contract": "contracts/PrimarySale.sol:PrimarySale",
        "label": "_createdSales",
        "offset": 0,
        "slot": "153",
        "type": "t_mapping(t_address,t_struct(UintSet)2109_storage)"
      },
      {
        "astId": 6069,
        "contract": "contracts/PrimarySale.sol:PrimarySale",
        "label": "saleMapping",
        "offset": 0,
        "slot": "154",
        "type": "t_mapping(t_uint256,t_struct(CreatedSale)6059_storage)"
      },
      {
        "astId": 6079,
        "contract": "contracts/PrimarySale.sol:PrimarySale",
        "label": "token",
        "offset": 0,
        "slot": "155",
        "type": "t_contract(IERC721)4744"
      }
    ],
    "types": {
      "t_address": {
        "encoding": "inplace",
        "label": "address",
        "numberOfBytes": "20"
      },
      "t_array(t_bytes32)dyn_storage": {
        "base": "t_bytes32",
        "encoding": "dynamic_array",
        "label": "bytes32[]",
        "numberOfBytes": "32"
      },
      "t_array(t_uint256)49_storage": {
        "base": "t_uint256",
        "encoding": "inplace",
        "label": "uint256[49]",
        "numberOfBytes": "1568"
      },
      "t_array(t_uint256)50_storage": {
        "base": "t_uint256",
        "encoding": "inplace",
        "label": "uint256[50]",
        "numberOfBytes": "1600"
      },
      "t_bool": {
        "encoding": "inplace",
        "label": "bool",
        "numberOfBytes": "1"
      },
      "t_bytes32": {
        "encoding": "inplace",
        "label": "bytes32",
        "numberOfBytes": "32"
      },
      "t_contract(IERC20Upgradeable)402": {
        "encoding": "inplace",
        "label": "contract IERC20Upgradeable",
        "numberOfBytes": "20"
      },
      "t_contract(IERC721)4744": {
        "encoding": "inplace",
        "label": "contract IERC721",
        "numberOfBytes": "20"
      },
      "t_mapping(t_address,t_bool)": {
        "encoding": "mapping",
        "key": "t_address",
        "label": "mapping(address => bool)",
        "numberOfBytes": "32",
        "value": "t_bool"
      },
      "t_mapping(t_address,t_struct(UintSet)2109_storage)": {
        "encoding": "mapping",
        "key": "t_address",
        "label": "mapping(address => struct EnumerableSetUpgradeable.UintSet)",
        "numberOfBytes": "32",
        "value": "t_struct(UintSet)2109_storage"
      },
      "t_mapping(t_bytes32,t_uint256)": {
        "encoding": "mapping",
        "key": "t_bytes32",
        "label": "mapping(bytes32 => uint256)",
        "numberOfBytes": "32",
        "value": "t_uint256"
      },
      "t_mapping(t_contract(IERC20Upgradeable)402,t_uint256)": {
        "encoding": "mapping",
        "key": "t_contract(IERC20Upgradeable)402",
        "label": "mapping(contract IERC20Upgradeable => uint256)",
        "numberOfBytes": "32",
        "value": "t_uint256"
      },
      "t_mapping(t_uint256,t_struct(CreatedSale)6059_storage)": {
        "encoding": "mapping",
        "key": "t_uint256",
        "label": "mapping(uint256 => struct PrimarySale.CreatedSale)",
        "numberOfBytes": "32",
        "value": "t_struct(CreatedSale)6059_storage"
      },
      "t_struct(CreatedSale)6059_storage": {
        "encoding": "inplace",
        "label": "struct PrimarySale.CreatedSale",
        "members": [
          {
            "astId": 6049,
            "contract": "contracts/PrimarySale.sol:PrimarySale",
            "label": "tokenId",
            "offset": 0,
            "slot": "0",
            "type": "t_uint256"
          },
          {
            "astId": 6051,
            "contract": "contracts/PrimarySale.sol:PrimarySale",
            "label": "owner",
            "offset": 0,
            "slot": "1",
            "type": "t_address"
          },
          {
            "astId": 6053,
            "contract": "contracts/PrimarySale.sol:PrimarySale",
            "label": "price",
            "offset": 0,
            "slot": "2",
            "type": "t_uint256"
          },
          {
            "astId": 6055,
            "contract": "contracts/PrimarySale.sol:PrimarySale",
            "label": "untill",
            "offset": 0,
            "slot": "3",
            "type": "t_uint256"
          },
          {
            "astId": 6058,
            "contract": "contracts/PrimarySale.sol:PrimarySale",
            "label": "currency",
            "offset": 0,
            "slot": "4",
            "type": "t_contract(IERC20Upgradeable)402"
          }
        ],
        "numberOfBytes": "160"
      },
      "t_struct(Set)1651_storage": {
        "encoding": "inplace",
        "label": "struct EnumerableSetUpgradeable.Set",
        "members": [
          {
            "astId": 1646,
            "contract": "contracts/PrimarySale.sol:PrimarySale",
            "label": "_values",
            "offset": 0,
            "slot": "0",
            "type": "t_array(t_bytes32)dyn_storage"
          },
          {
            "astId": 1650,
            "contract": "contracts/PrimarySale.sol:PrimarySale",
            "label": "_indexes",
            "offset": 0,
            "slot": "1",
            "type": "t_mapping(t_bytes32,t_uint256)"
          }
        ],
        "numberOfBytes": "64"
      },
      "t_struct(UintSet)2109_storage": {
        "encoding": "inplace",
        "label": "struct EnumerableSetUpgradeable.UintSet",
        "members": [
          {
            "astId": 2108,
            "contract": "contracts/PrimarySale.sol:PrimarySale",
            "label": "_inner",
            "offset": 0,
            "slot": "0",
            "type": "t_struct(Set)1651_storage"
          }
        ],
        "numberOfBytes": "64"
      },
      "t_uint256": {
        "encoding": "inplace",
        "label": "uint256",
        "numberOfBytes": "32"
      },
      "t_uint8": {
        "encoding": "inplace",
        "label": "uint8",
        "numberOfBytes": "1"
      }
    }
  }
}