{
  "address": "0xC69692EBF99d2FB81A18c3d4080672378EeA52E4",
  "abi": [
    {
      "anonymous": false,
      "inputs": [
        {
          "indexed": true,
          "internalType": "address",
          "name": "owner",
          "type": "address"
        },
        {
          "indexed": true,
          "internalType": "address",
          "name": "approved",
          "type": "address"
        },
        {
          "indexed": true,
          "internalType": "uint256",
          "name": "tokenId",
          "type": "uint256"
        }
      ],
      "name": "Approval",
      "type": "event"
    },
    {
      "anonymous": false,
      "inputs": [
        {
          "indexed": true,
          "internalType": "address",
          "name": "owner",
          "type": "address"
        },
        {
          "indexed": true,
          "internalType": "address",
          "name": "operator",
          "type": "address"
        },
        {
          "indexed": false,
          "internalType": "bool",
          "name": "approved",
          "type": "bool"
        }
      ],
      "name": "ApprovalForAll",
      "type": "event"
    },
    {
      "anonymous": false,
      "inputs": [
        {
          "indexed": false,
          "internalType": "uint8",
          "name": "version",
          "type": "uint8"
        }
      ],
      "name": "Initialized",
      "type": "event"
    },
    {
      "anonymous": false,
      "inputs": [
        {
          "indexed": true,
          "internalType": "address",
          "name": "previousOwner",
          "type": "address"
        },
        {
          "indexed": true,
          "internalType": "address",
          "name": "newOwner",
          "type": "address"
        }
      ],
      "name": "OwnershipTransferred",
      "type": "event"
    },
    {
      "anonymous": false,
      "inputs": [
        {
          "indexed": false,
          "internalType": "address",
          "name": "admin",
          "type": "address"
        },
        {
          "indexed": false,
          "internalType": "bool",
          "name": "enabled",
          "type": "bool"
        }
      ],
      "name": "SetAdmin",
      "type": "event"
    },
    {
      "anonymous": false,
      "inputs": [
        {
          "indexed": true,
          "internalType": "address",
          "name": "from",
          "type": "address"
        },
        {
          "indexed": true,
          "internalType": "address",
          "name": "to",
          "type": "address"
        },
        {
          "indexed": true,
          "internalType": "uint256",
          "name": "tokenId",
          "type": "uint256"
        }
      ],
      "name": "Transfer",
      "type": "event"
    },
    {
      "inputs": [
        {
          "internalType": "address",
          "name": "to",
          "type": "address"
        },
        {
          "internalType": "uint256",
          "name": "tokenId",
          "type": "uint256"
        }
      ],
      "name": "approve",
      "outputs": [],
      "stateMutability": "nonpayable",
      "type": "function"
    },
    {
      "inputs": [
        {
          "internalType": "address",
          "name": "owner",
          "type": "address"
        }
      ],
      "name": "balanceOf",
      "outputs": [
        {
          "internalType": "uint256",
          "name": "",
          "type": "uint256"
        }
      ],
      "stateMutability": "view",
      "type": "function"
    },
    {
      "inputs": [
        {
          "internalType": "uint256",
          "name": "tokenId",
          "type": "uint256"
        }
      ],
      "name": "getApproved",
      "outputs": [
        {
          "internalType": "address",
          "name": "",
          "type": "address"
        }
      ],
      "stateMutability": "view",
      "type": "function"
    },
    {
      "inputs": [
        {
          "internalType": "string",
          "name": "__name",
          "type": "string"
        },
        {
          "internalType": "string",
          "name": "__symbol",
          "type": "string"
        }
      ],
      "name": "initialize",
      "outputs": [],
      "stateMutability": "nonpayable",
      "type": "function"
    },
    {
      "inputs": [
        {
          "internalType": "address",
          "name": "owner",
          "type": "address"
        },
        {
          "internalType": "address",
          "name": "operator",
          "type": "address"
        }
      ],
      "name": "isApprovedForAll",
      "outputs": [
        {
          "internalType": "bool",
          "name": "",
          "type": "bool"
        }
      ],
      "stateMutability": "view",
      "type": "function"
    },
    {
      "inputs": [
        {
          "internalType": "address",
          "name": "to",
          "type": "address"
        }
      ],
      "name": "mint",
      "outputs": [
        {
          "internalType": "uint256",
          "name": "tokenId",
          "type": "uint256"
        }
      ],
      "stateMutability": "nonpayable",
      "type": "function"
    },
    {
      "inputs": [
        {
          "internalType": "address",
          "name": "to",
          "type": "address"
        },
        {
          "internalType": "string",
          "name": "_tokenURI",
          "type": "string"
        }
      ],
      "name": "mintWith",
      "outputs": [
        {
          "internalType": "uint256",
          "name": "tokenId",
          "type": "uint256"
        }
      ],
      "stateMutability": "nonpayable",
      "type": "function"
    },
    {
      "inputs": [],
      "name": "name",
      "outputs": [
        {
          "internalType": "string",
          "name": "",
          "type": "string"
        }
      ],
      "stateMutability": "view",
      "type": "function"
    },
    {
      "inputs": [],
      "name": "owner",
      "outputs": [
        {
          "internalType": "address",
          "name": "",
          "type": "address"
        }
      ],
      "stateMutability": "view",
      "type": "function"
    },
    {
      "inputs": [
        {
          "internalType": "uint256",
          "name": "tokenId",
          "type": "uint256"
        }
      ],
      "name": "ownerOf",
      "outputs": [
        {
          "internalType": "address",
          "name": "",
          "type": "address"
        }
      ],
      "stateMutability": "view",
      "type": "function"
    },
    {
      "inputs": [],
      "name": "renounceOwnership",
      "outputs": [],
      "stateMutability": "nonpayable",
      "type": "function"
    },
    {
      "inputs": [
        {
          "internalType": "address",
          "name": "from",
          "type": "address"
        },
        {
          "internalType": "address",
          "name": "to",
          "type": "address"
        },
        {
          "internalType": "uint256",
          "name": "tokenId",
          "type": "uint256"
        }
      ],
      "name": "safeTransferFrom",
      "outputs": [],
      "stateMutability": "nonpayable",
      "type": "function"
    },
    {
      "inputs": [
        {
          "internalType": "address",
          "name": "from",
          "type": "address"
        },
        {
          "internalType": "address",
          "name": "to",
          "type": "address"
        },
        {
          "internalType": "uint256",
          "name": "tokenId",
          "type": "uint256"
        },
        {
          "internalType": "bytes",
          "name": "_data",
          "type": "bytes"
        }
      ],
      "name": "safeTransferFrom",
      "outputs": [],
      "stateMutability": "nonpayable",
      "type": "function"
    },
    {
      "inputs": [
        {
          "internalType": "address",
          "name": "admin",
          "type": "address"
        },
        {
          "internalType": "bool",
          "name": "enabled",
          "type": "bool"
        }
      ],
      "name": "setAdmin",
      "outputs": [],
      "stateMutability": "nonpayable",
      "type": "function"
    },
    {
      "inputs": [
        {
          "internalType": "address",
          "name": "operator",
          "type": "address"
        },
        {
          "internalType": "bool",
          "name": "approved",
          "type": "bool"
        }
      ],
      "name": "setApprovalForAll",
      "outputs": [],
      "stateMutability": "nonpayable",
      "type": "function"
    },
    {
      "inputs": [
        {
          "internalType": "uint256[]",
          "name": "_tokenIds",
          "type": "uint256[]"
        },
        {
          "internalType": "string[]",
          "name": "_tokenURIs",
          "type": "string[]"
        }
      ],
      "name": "setTokenURIs",
      "outputs": [],
      "stateMutability": "nonpayable",
      "type": "function"
    },
    {
      "inputs": [
        {
          "internalType": "bytes4",
          "name": "interfaceId",
          "type": "bytes4"
        }
      ],
      "name": "supportsInterface",
      "outputs": [
        {
          "internalType": "bool",
          "name": "",
          "type": "bool"
        }
      ],
      "stateMutability": "view",
      "type": "function"
    },
    {
      "inputs": [],
      "name": "symbol",
      "outputs": [
        {
          "internalType": "string",
          "name": "",
          "type": "string"
        }
      ],
      "stateMutability": "view",
      "type": "function"
    },
    {
      "inputs": [
        {
          "internalType": "uint256",
          "name": "tokenId",
          "type": "uint256"
        }
      ],
      "name": "tokenURI",
      "outputs": [
        {
          "internalType": "string",
          "name": "",
          "type": "string"
        }
      ],
      "stateMutability": "view",
      "type": "function"
    },
    {
      "inputs": [
        {
          "internalType": "address",
          "name": "from",
          "type": "address"
        },
        {
          "internalType": "address",
          "name": "to",
          "type": "address"
        },
        {
          "internalType": "uint256",
          "name": "tokenId",
          "type": "uint256"
        }
      ],
      "name": "transferFrom",
      "outputs": [],
      "stateMutability": "nonpayable",
      "type": "function"
    },
    {
      "inputs": [
        {
          "internalType": "address",
          "name": "newOwner",
          "type": "address"
        }
      ],
      "name": "transferOwnership",
      "outputs": [],
      "stateMutability": "nonpayable",
      "type": "function"
    }
  ],
  "transactionHash": "0x4841884f4df81dbc4716e9a3a78b99bdc2f05dc0c39db2fd93ec0f1cfb628e91",
  "args": [],
  "numDeployments": 1,
  "solcInputHash": "52f5743ff6244ff25f24f26180596291",
  "bytecode": "0x6080604052600060fc5534801561001557600080fd5b50613b6d806100256000396000f3fe608060405234801561001057600080fd5b50600436106101375760003560e01c80636a627842116100b8578063a22cb4651161007c578063a22cb4651461034c578063b88d4fde14610368578063c87b56dd14610384578063db3e4c84146103b4578063e985e9c5146103d0578063f2fde38b1461040057610137565b80636a627842146102a657806370a08231146102d6578063715018a6146103065780638da5cb5b1461031057806395d89b411461032e57610137565b806323b872dd116100ff57806323b872dd1461020657806342842e0e146102225780634b0bddd21461023e5780634cd88b761461025a5780636352211e1461027657610137565b806301ffc9a71461013c57806306fdde031461016c578063081812fc1461018a57806308811817146101ba578063095ea7b3146101ea575b600080fd5b6101566004803603810190610151919061278a565b61041c565b6040516101639190612d1e565b60405180910390f35b6101746104fe565b6040516101819190612d54565b60405180910390f35b6101a4600480360381019061019f919061285c565b610590565b6040516101b19190612c8e565b60405180910390f35b6101d460048036038101906101cf9190612676565b610615565b6040516101e19190613036565b60405180910390f35b61020460048036038101906101ff91906126d2565b6106c5565b005b610220600480360381019061021b9190612560565b6107dd565b005b61023c60048036038101906102379190612560565b61083d565b005b61025860048036038101906102539190612636565b61085d565b005b610274600480360381019061026f91906127e4565b61096d565b005b610290600480360381019061028b919061285c565b610a0d565b60405161029d9190612c8e565b60405180910390f35b6102c060048036038101906102bb91906124f3565b610abf565b6040516102cd9190613036565b60405180910390f35b6102f060048036038101906102eb91906124f3565b610b6d565b6040516102fd9190613036565b60405180910390f35b61030e610c25565b005b610318610cad565b6040516103259190612c8e565b60405180910390f35b610336610cd7565b6040516103439190612d54565b60405180910390f35b61036660048036038101906103619190612636565b610d69565b005b610382600480360381019061037d91906125b3565b610d7f565b005b61039e6004803603810190610399919061285c565b610de1565b6040516103ab9190612d54565b60405180910390f35b6103ce60048036038101906103c99190612712565b610f33565b005b6103ea60048036038101906103e59190612520565b610fd9565b6040516103f79190612d1e565b60405180910390f35b61041a600480360381019061041591906124f3565b61106d565b005b60007f80ac58cd000000000000000000000000000000000000000000000000000000007bffffffffffffffffffffffffffffffffffffffffffffffffffffffff1916827bffffffffffffffffffffffffffffffffffffffffffffffffffffffff191614806104e757507f5b5e139f000000000000000000000000000000000000000000000000000000007bffffffffffffffffffffffffffffffffffffffffffffffffffffffff1916827bffffffffffffffffffffffffffffffffffffffffffffffffffffffff1916145b806104f757506104f682611165565b5b9050919050565b60606065805461050d90613303565b80601f016020809104026020016040519081016040528092919081815260200182805461053990613303565b80156105865780601f1061055b57610100808354040283529160200191610586565b820191906000526020600020905b81548152906001019060200180831161056957829003601f168201915b5050505050905090565b600061059b826111cf565b6105da576040517f08c379a00000000000000000000000000000000000000000000000000000000081526004016105d190612f36565b60405180910390fd5b6069600083815260200190815260200160002060009054906101000a900473ffffffffffffffffffffffffffffffffffffffff169050919050565b600060fb600061062361123b565b73ffffffffffffffffffffffffffffffffffffffff1673ffffffffffffffffffffffffffffffffffffffff16815260200190815260200160002060009054906101000a900460ff166106aa576040517f08c379a00000000000000000000000000000000000000000000000000000000081526004016106a190613016565b60405180910390fd5b6106b383610abf565b90506106bf8183611243565b92915050565b60006106d082610a0d565b90508073ffffffffffffffffffffffffffffffffffffffff168373ffffffffffffffffffffffffffffffffffffffff161415610741576040517f08c379a000000000000000000000000000000000000000000000000000000000815260040161073890612f96565b60405180910390fd5b8073ffffffffffffffffffffffffffffffffffffffff1661076061123b565b73ffffffffffffffffffffffffffffffffffffffff16148061078f575061078e8161078961123b565b610fd9565b5b6107ce576040517f08c379a00000000000000000000000000000000000000000000000000000000081526004016107c590612e56565b60405180910390fd5b6107d883836112b7565b505050565b6107ee6107e861123b565b82611370565b61082d576040517f08c379a000000000000000000000000000000000000000000000000000000000815260040161082490612fd6565b60405180910390fd5b61083883838361144e565b505050565b61085883838360405180602001604052806000815250610d7f565b505050565b61086561123b565b73ffffffffffffffffffffffffffffffffffffffff16610883610cad565b73ffffffffffffffffffffffffffffffffffffffff16146108d9576040517f08c379a00000000000000000000000000000000000000000000000000000000081526004016108d090612f56565b60405180910390fd5b8060fb60008473ffffffffffffffffffffffffffffffffffffffff1673ffffffffffffffffffffffffffffffffffffffff16815260200190815260200160002060006101000a81548160ff0219169083151502179055507f55a5194bc0174fcaf12b2978bef43911466bf63b34db8d1dd1a0d5dcd5c41bea8282604051610961929190612cf5565b60405180910390a15050565b600061097960016116b5565b9050801561099d576001600060016101000a81548160ff0219169083151502179055505b6109a783836117a5565b6109af611802565b8015610a085760008060016101000a81548160ff0219169083151502179055507f7f26b83ff96e1f2b6a682f133852f6798a09c465da95921460cefb384740249860016040516109ff9190612d39565b60405180910390a15b505050565b6000806067600084815260200190815260200160002060009054906101000a900473ffffffffffffffffffffffffffffffffffffffff169050600073ffffffffffffffffffffffffffffffffffffffff168173ffffffffffffffffffffffffffffffffffffffff161415610ab6576040517f08c379a0000000000000000000000000000000000000000000000000000000008152600401610aad90612e96565b60405180910390fd5b80915050919050565b600060fb6000610acd61123b565b73ffffffffffffffffffffffffffffffffffffffff1673ffffffffffffffffffffffffffffffffffffffff16815260200190815260200160002060009054906101000a900460ff16610b54576040517f08c379a0000000000000000000000000000000000000000000000000000000008152600401610b4b90613016565b60405180910390fd5b610b5c61185b565b9050610b68828261187f565b919050565b60008073ffffffffffffffffffffffffffffffffffffffff168273ffffffffffffffffffffffffffffffffffffffff161415610bde576040517f08c379a0000000000000000000000000000000000000000000000000000000008152600401610bd590612e76565b60405180910390fd5b606860008373ffffffffffffffffffffffffffffffffffffffff1673ffffffffffffffffffffffffffffffffffffffff168152602001908152602001600020549050919050565b610c2d61123b565b73ffffffffffffffffffffffffffffffffffffffff16610c4b610cad565b73ffffffffffffffffffffffffffffffffffffffff1614610ca1576040517f08c379a0000000000000000000000000000000000000000000000000000000008152600401610c9890612f56565b60405180910390fd5b610cab6000611a59565b565b600060c960009054906101000a900473ffffffffffffffffffffffffffffffffffffffff16905090565b606060668054610ce690613303565b80601f0160208091040260200160405190810160405280929190818152602001828054610d1290613303565b8015610d5f5780601f10610d3457610100808354040283529160200191610d5f565b820191906000526020600020905b815481529060010190602001808311610d4257829003601f168201915b5050505050905090565b610d7b610d7461123b565b8383611b1f565b5050565b610d90610d8a61123b565b83611370565b610dcf576040517f08c379a0000000000000000000000000000000000000000000000000000000008152600401610dc690612fd6565b60405180910390fd5b610ddb84848484611c8c565b50505050565b6060610dec826111cf565b610e2b576040517f08c379a0000000000000000000000000000000000000000000000000000000008152600401610e2290612f16565b60405180910390fd5b6000609760008481526020019081526020016000208054610e4b90613303565b80601f0160208091040260200160405190810160405280929190818152602001828054610e7790613303565b8015610ec45780601f10610e9957610100808354040283529160200191610ec4565b820191906000526020600020905b815481529060010190602001808311610ea757829003601f168201915b505050505090506000610ed5611ce8565b9050600081511415610eeb578192505050610f2e565b600082511115610f20578082604051602001610f08929190612c6a565b60405160208183030381529060405292505050610f2e565b610f2984611cff565b925050505b919050565b8051825114610f77576040517f08c379a0000000000000000000000000000000000000000000000000000000008152600401610f6e90612fb6565b60405180910390fd5b60005b8151811015610fd457610fc1838281518110610f9957610f9861346d565b5b6020026020010151838381518110610fb457610fb361346d565b5b6020026020010151611243565b8080610fcc90613366565b915050610f7a565b505050565b6000606a60008473ffffffffffffffffffffffffffffffffffffffff1673ffffffffffffffffffffffffffffffffffffffff16815260200190815260200160002060008373ffffffffffffffffffffffffffffffffffffffff1673ffffffffffffffffffffffffffffffffffffffff16815260200190815260200160002060009054906101000a900460ff16905092915050565b61107561123b565b73ffffffffffffffffffffffffffffffffffffffff16611093610cad565b73ffffffffffffffffffffffffffffffffffffffff16146110e9576040517f08c379a00000000000000000000000000000000000000000000000000000000081526004016110e090612f56565b60405180910390fd5b600073ffffffffffffffffffffffffffffffffffffffff168173ffffffffffffffffffffffffffffffffffffffff161415611159576040517f08c379a000000000000000000000000000000000000000000000000000000000815260040161115090612d96565b60405180910390fd5b61116281611a59565b50565b60007f01ffc9a7000000000000000000000000000000000000000000000000000000007bffffffffffffffffffffffffffffffffffffffffffffffffffffffff1916827bffffffffffffffffffffffffffffffffffffffffffffffffffffffff1916149050919050565b60008073ffffffffffffffffffffffffffffffffffffffff166067600084815260200190815260200160002060009054906101000a900473ffffffffffffffffffffffffffffffffffffffff1673ffffffffffffffffffffffffffffffffffffffff1614159050919050565b600033905090565b61124c826111cf565b61128b576040517f08c379a000000000000000000000000000000000000000000000000000000000815260040161128290612eb6565b60405180910390fd5b806097600084815260200190815260200160002090805190602001906112b29291906121ad565b505050565b816069600083815260200190815260200160002060006101000a81548173ffffffffffffffffffffffffffffffffffffffff021916908373ffffffffffffffffffffffffffffffffffffffff160217905550808273ffffffffffffffffffffffffffffffffffffffff1661132a83610a0d565b73ffffffffffffffffffffffffffffffffffffffff167f8c5be1e5ebec7d5bd14f71427d1e84f3dd0314c0f7b2291e5b200ac8c7c3b92560405160405180910390a45050565b600061137b826111cf565b6113ba576040517f08c379a00000000000000000000000000000000000000000000000000000000081526004016113b190612e36565b60405180910390fd5b60006113c583610a0d565b90508073ffffffffffffffffffffffffffffffffffffffff168473ffffffffffffffffffffffffffffffffffffffff16148061140757506114068185610fd9565b5b8061144557508373ffffffffffffffffffffffffffffffffffffffff1661142d84610590565b73ffffffffffffffffffffffffffffffffffffffff16145b91505092915050565b8273ffffffffffffffffffffffffffffffffffffffff1661146e82610a0d565b73ffffffffffffffffffffffffffffffffffffffff16146114c4576040517f08c379a00000000000000000000000000000000000000000000000000000000081526004016114bb90612db6565b60405180910390fd5b600073ffffffffffffffffffffffffffffffffffffffff168273ffffffffffffffffffffffffffffffffffffffff161415611534576040517f08c379a000000000000000000000000000000000000000000000000000000000815260040161152b90612df6565b60405180910390fd5b61153f838383611da6565b61154a6000826112b7565b6001606860008573ffffffffffffffffffffffffffffffffffffffff1673ffffffffffffffffffffffffffffffffffffffff168152602001908152602001600020600082825461159a91906131fa565b925050819055506001606860008473ffffffffffffffffffffffffffffffffffffffff1673ffffffffffffffffffffffffffffffffffffffff16815260200190815260200160002060008282546115f19190613173565b92505081905550816067600083815260200190815260200160002060006101000a81548173ffffffffffffffffffffffffffffffffffffffff021916908373ffffffffffffffffffffffffffffffffffffffff160217905550808273ffffffffffffffffffffffffffffffffffffffff168473ffffffffffffffffffffffffffffffffffffffff167fddf252ad1be2c89b69c2b068fc378daa952ba7f163c4a11628f55a4df523b3ef60405160405180910390a46116b0838383611dab565b505050565b60008060019054906101000a900460ff161561172c5760018260ff161480156116e457506116e230611db0565b155b611723576040517f08c379a000000000000000000000000000000000000000000000000000000000815260040161171a90612ed6565b60405180910390fd5b600090506117a0565b8160ff1660008054906101000a900460ff1660ff1610611781576040517f08c379a000000000000000000000000000000000000000000000000000000000815260040161177890612ed6565b60405180910390fd5b816000806101000a81548160ff021916908360ff160217905550600190505b919050565b600060019054906101000a900460ff166117f4576040517f08c379a00000000000000000000000000000000000000000000000000000000081526004016117eb90612ff6565b60405180910390fd5b6117fe8282611dd3565b5050565b600060019054906101000a900460ff16611851576040517f08c379a000000000000000000000000000000000000000000000000000000000815260040161184890612ff6565b60405180910390fd5b611859611e54565b565b6000600160fc60008282546118709190613173565b9250508190555060fc54905090565b600073ffffffffffffffffffffffffffffffffffffffff168273ffffffffffffffffffffffffffffffffffffffff1614156118ef576040517f08c379a00000000000000000000000000000000000000000000000000000000081526004016118e690612ef6565b60405180910390fd5b6118f8816111cf565b15611938576040517f08c379a000000000000000000000000000000000000000000000000000000000815260040161192f90612dd6565b60405180910390fd5b61194460008383611da6565b6001606860008473ffffffffffffffffffffffffffffffffffffffff1673ffffffffffffffffffffffffffffffffffffffff16815260200190815260200160002060008282546119949190613173565b92505081905550816067600083815260200190815260200160002060006101000a81548173ffffffffffffffffffffffffffffffffffffffff021916908373ffffffffffffffffffffffffffffffffffffffff160217905550808273ffffffffffffffffffffffffffffffffffffffff16600073ffffffffffffffffffffffffffffffffffffffff167fddf252ad1be2c89b69c2b068fc378daa952ba7f163c4a11628f55a4df523b3ef60405160405180910390a4611a5560008383611dab565b5050565b600060c960009054906101000a900473ffffffffffffffffffffffffffffffffffffffff1690508160c960006101000a81548173ffffffffffffffffffffffffffffffffffffffff021916908373ffffffffffffffffffffffffffffffffffffffff1602179055508173ffffffffffffffffffffffffffffffffffffffff168173ffffffffffffffffffffffffffffffffffffffff167f8be0079c531659141344cd1fd0a4f28419497f9722a3daafe3b4186f6b6457e060405160405180910390a35050565b8173ffffffffffffffffffffffffffffffffffffffff168373ffffffffffffffffffffffffffffffffffffffff161415611b8e576040517f08c379a0000000000000000000000000000000000000000000000000000000008152600401611b8590612e16565b60405180910390fd5b80606a60008573ffffffffffffffffffffffffffffffffffffffff1673ffffffffffffffffffffffffffffffffffffffff16815260200190815260200160002060008473ffffffffffffffffffffffffffffffffffffffff1673ffffffffffffffffffffffffffffffffffffffff16815260200190815260200160002060006101000a81548160ff0219169083151502179055508173ffffffffffffffffffffffffffffffffffffffff168373ffffffffffffffffffffffffffffffffffffffff167f17307eab39ab6107e8899845ad3d59bd9653f200f220920489ca2b5937696c3183604051611c7f9190612d1e565b60405180910390a3505050565b611c9784848461144e565b611ca384848484611eb5565b611ce2576040517f08c379a0000000000000000000000000000000000000000000000000000000008152600401611cd990612d76565b60405180910390fd5b50505050565b606060405180602001604052806000815250905090565b6060611d0a826111cf565b611d49576040517f08c379a0000000000000000000000000000000000000000000000000000000008152600401611d4090612f76565b60405180910390fd5b6000611d53611ce8565b90506000815111611d735760405180602001604052806000815250611d9e565b80611d7d8461204c565b604051602001611d8e929190612c6a565b6040516020818303038152906040525b915050919050565b505050565b505050565b6000808273ffffffffffffffffffffffffffffffffffffffff163b119050919050565b600060019054906101000a900460ff16611e22576040517f08c379a0000000000000000000000000000000000000000000000000000000008152600401611e1990612ff6565b60405180910390fd5b8160659080519060200190611e389291906121ad565b508060669080519060200190611e4f9291906121ad565b505050565b600060019054906101000a900460ff16611ea3576040517f08c379a0000000000000000000000000000000000000000000000000000000008152600401611e9a90612ff6565b60405180910390fd5b611eb3611eae61123b565b611a59565b565b6000611ed68473ffffffffffffffffffffffffffffffffffffffff16611db0565b1561203f578373ffffffffffffffffffffffffffffffffffffffff1663150b7a02611eff61123b565b8786866040518563ffffffff1660e01b8152600401611f219493929190612ca9565b602060405180830381600087803b158015611f3b57600080fd5b505af1925050508015611f6c57506040513d601f19601f82011682018060405250810190611f6991906127b7565b60015b611fef573d8060008114611f9c576040519150601f19603f3d011682016040523d82523d6000602084013e611fa1565b606091505b50600081511415611fe7576040517f08c379a0000000000000000000000000000000000000000000000000000000008152600401611fde90612d76565b60405180910390fd5b805181602001fd5b63150b7a0260e01b7bffffffffffffffffffffffffffffffffffffffffffffffffffffffff1916817bffffffffffffffffffffffffffffffffffffffffffffffffffffffff191614915050612044565b600190505b949350505050565b60606000821415612094576040518060400160405280600181526020017f300000000000000000000000000000000000000000000000000000000000000081525090506121a8565b600082905060005b600082146120c65780806120af90613366565b915050600a826120bf91906131c9565b915061209c565b60008167ffffffffffffffff8111156120e2576120e161349c565b5b6040519080825280601f01601f1916602001820160405280156121145781602001600182028036833780820191505090505b5090505b600085146121a15760018261212d91906131fa565b9150600a8561213c91906133af565b60306121489190613173565b60f81b81838151811061215e5761215d61346d565b5b60200101907effffffffffffffffffffffffffffffffffffffffffffffffffffffffffffff1916908160001a905350600a8561219a91906131c9565b9450612118565b8093505050505b919050565b8280546121b990613303565b90600052602060002090601f0160209004810192826121db5760008555612222565b82601f106121f457805160ff1916838001178555612222565b82800160010185558215612222579182015b82811115612221578251825591602001919060010190612206565b5b50905061222f9190612233565b5090565b5b8082111561224c576000816000905550600101612234565b5090565b600061226361225e84613076565b613051565b90508083825260208201905082856020860282011115612286576122856134d0565b5b60005b858110156122d457813567ffffffffffffffff8111156122ac576122ab6134cb565b5b8086016122b989826124b0565b85526020850194506020840193505050600181019050612289565b5050509392505050565b60006122f16122ec846130a2565b613051565b90508083825260208201905082856020860282011115612314576123136134d0565b5b60005b85811015612344578161232a88826124de565b845260208401935060208301925050600181019050612317565b5050509392505050565b600061236161235c846130ce565b613051565b90508281526020810184848401111561237d5761237c6134d5565b5b6123888482856132c1565b509392505050565b60006123a361239e846130ff565b613051565b9050828152602081018484840111156123bf576123be6134d5565b5b6123ca8482856132c1565b509392505050565b6000813590506123e181613adb565b92915050565b600082601f8301126123fc576123fb6134cb565b5b813561240c848260208601612250565b91505092915050565b600082601f83011261242a576124296134cb565b5b813561243a8482602086016122de565b91505092915050565b60008135905061245281613af2565b92915050565b60008135905061246781613b09565b92915050565b60008151905061247c81613b09565b92915050565b600082601f830112612497576124966134cb565b5b81356124a784826020860161234e565b91505092915050565b600082601f8301126124c5576124c46134cb565b5b81356124d5848260208601612390565b91505092915050565b6000813590506124ed81613b20565b92915050565b600060208284031215612509576125086134df565b5b6000612517848285016123d2565b91505092915050565b60008060408385031215612537576125366134df565b5b6000612545858286016123d2565b9250506020612556858286016123d2565b9150509250929050565b600080600060608486031215612579576125786134df565b5b6000612587868287016123d2565b9350506020612598868287016123d2565b92505060406125a9868287016124de565b9150509250925092565b600080600080608085870312156125cd576125cc6134df565b5b60006125db878288016123d2565b94505060206125ec878288016123d2565b93505060406125fd878288016124de565b925050606085013567ffffffffffffffff81111561261e5761261d6134da565b5b61262a87828801612482565b91505092959194509250565b6000806040838503121561264d5761264c6134df565b5b600061265b858286016123d2565b925050602061266c85828601612443565b9150509250929050565b6000806040838503121561268d5761268c6134df565b5b600061269b858286016123d2565b925050602083013567ffffffffffffffff8111156126bc576126bb6134da565b5b6126c8858286016124b0565b9150509250929050565b600080604083850312156126e9576126e86134df565b5b60006126f7858286016123d2565b9250506020612708858286016124de565b9150509250929050565b60008060408385031215612729576127286134df565b5b600083013567ffffffffffffffff811115612747576127466134da565b5b61275385828601612415565b925050602083013567ffffffffffffffff811115612774576127736134da565b5b612780858286016123e7565b9150509250929050565b6000602082840312156127a05761279f6134df565b5b60006127ae84828501612458565b91505092915050565b6000602082840312156127cd576127cc6134df565b5b60006127db8482850161246d565b91505092915050565b600080604083850312156127fb576127fa6134df565b5b600083013567ffffffffffffffff811115612819576128186134da565b5b612825858286016124b0565b925050602083013567ffffffffffffffff811115612846576128456134da565b5b612852858286016124b0565b9150509250929050565b600060208284031215612872576128716134df565b5b6000612880848285016124de565b91505092915050565b6128928161322e565b82525050565b6128a181613240565b82525050565b60006128b282613130565b6128bc8185613146565b93506128cc8185602086016132d0565b6128d5816134e4565b840191505092915050565b6128e9816132af565b82525050565b60006128fa8261313b565b6129048185613157565b93506129148185602086016132d0565b61291d816134e4565b840191505092915050565b60006129338261313b565b61293d8185613168565b935061294d8185602086016132d0565b80840191505092915050565b6000612966603283613157565b9150612971826134f5565b604082019050919050565b6000612989602683613157565b915061299482613544565b604082019050919050565b60006129ac602583613157565b91506129b782613593565b604082019050919050565b60006129cf601c83613157565b91506129da826135e2565b602082019050919050565b60006129f2602483613157565b91506129fd8261360b565b604082019050919050565b6000612a15601983613157565b9150612a208261365a565b602082019050919050565b6000612a38602c83613157565b9150612a4382613683565b604082019050919050565b6000612a5b603883613157565b9150612a66826136d2565b604082019050919050565b6000612a7e602a83613157565b9150612a8982613721565b604082019050919050565b6000612aa1602983613157565b9150612aac82613770565b604082019050919050565b6000612ac4602e83613157565b9150612acf826137bf565b604082019050919050565b6000612ae7602e83613157565b9150612af28261380e565b604082019050919050565b6000612b0a602083613157565b9150612b158261385d565b602082019050919050565b6000612b2d603183613157565b9150612b3882613886565b604082019050919050565b6000612b50602c83613157565b9150612b5b826138d5565b604082019050919050565b6000612b73602083613157565b9150612b7e82613924565b602082019050919050565b6000612b96602f83613157565b9150612ba18261394d565b604082019050919050565b6000612bb9602183613157565b9150612bc48261399c565b604082019050919050565b6000612bdc600f83613157565b9150612be7826139eb565b602082019050919050565b6000612bff603183613157565b9150612c0a82613a14565b604082019050919050565b6000612c22602b83613157565b9150612c2d82613a63565b604082019050919050565b6000612c45600983613157565b9150612c5082613ab2565b602082019050919050565b612c6481613298565b82525050565b6000612c768285612928565b9150612c828284612928565b91508190509392505050565b6000602082019050612ca36000830184612889565b92915050565b6000608082019050612cbe6000830187612889565b612ccb6020830186612889565b612cd86040830185612c5b565b8181036060830152612cea81846128a7565b905095945050505050565b6000604082019050612d0a6000830185612889565b612d176020830184612898565b9392505050565b6000602082019050612d336000830184612898565b92915050565b6000602082019050612d4e60008301846128e0565b92915050565b60006020820190508181036000830152612d6e81846128ef565b905092915050565b60006020820190508181036000830152612d8f81612959565b9050919050565b60006020820190508181036000830152612daf8161297c565b9050919050565b60006020820190508181036000830152612dcf8161299f565b9050919050565b60006020820190508181036000830152612def816129c2565b9050919050565b60006020820190508181036000830152612e0f816129e5565b9050919050565b60006020820190508181036000830152612e2f81612a08565b9050919050565b60006020820190508181036000830152612e4f81612a2b565b9050919050565b60006020820190508181036000830152612e6f81612a4e565b9050919050565b60006020820190508181036000830152612e8f81612a71565b9050919050565b60006020820190508181036000830152612eaf81612a94565b9050919050565b60006020820190508181036000830152612ecf81612ab7565b9050919050565b60006020820190508181036000830152612eef81612ada565b9050919050565b60006020820190508181036000830152612f0f81612afd565b9050919050565b60006020820190508181036000830152612f2f81612b20565b9050919050565b60006020820190508181036000830152612f4f81612b43565b9050919050565b60006020820190508181036000830152612f6f81612b66565b9050919050565b60006020820190508181036000830152612f8f81612b89565b9050919050565b60006020820190508181036000830152612faf81612bac565b9050919050565b60006020820190508181036000830152612fcf81612bcf565b9050919050565b60006020820190508181036000830152612fef81612bf2565b9050919050565b6000602082019050818103600083015261300f81612c15565b9050919050565b6000602082019050818103600083015261302f81612c38565b9050919050565b600060208201905061304b6000830184612c5b565b92915050565b600061305b61306c565b90506130678282613335565b919050565b6000604051905090565b600067ffffffffffffffff8211156130915761309061349c565b5b602082029050602081019050919050565b600067ffffffffffffffff8211156130bd576130bc61349c565b5b602082029050602081019050919050565b600067ffffffffffffffff8211156130e9576130e861349c565b5b6130f2826134e4565b9050602081019050919050565b600067ffffffffffffffff82111561311a5761311961349c565b5b613123826134e4565b9050602081019050919050565b600081519050919050565b600081519050919050565b600082825260208201905092915050565b600082825260208201905092915050565b600081905092915050565b600061317e82613298565b915061318983613298565b9250827fffffffffffffffffffffffffffffffffffffffffffffffffffffffffffffffff038211156131be576131bd6133e0565b5b828201905092915050565b60006131d482613298565b91506131df83613298565b9250826131ef576131ee61340f565b5b828204905092915050565b600061320582613298565b915061321083613298565b925082821015613223576132226133e0565b5b828203905092915050565b600061323982613278565b9050919050565b60008115159050919050565b60007fffffffff0000000000000000000000000000000000000000000000000000000082169050919050565b600073ffffffffffffffffffffffffffffffffffffffff82169050919050565b6000819050919050565b600060ff82169050919050565b60006132ba826132a2565b9050919050565b82818337600083830152505050565b60005b838110156132ee5780820151818401526020810190506132d3565b838111156132fd576000848401525b50505050565b6000600282049050600182168061331b57607f821691505b6020821081141561332f5761332e61343e565b5b50919050565b61333e826134e4565b810181811067ffffffffffffffff8211171561335d5761335c61349c565b5b80604052505050565b600061337182613298565b91507fffffffffffffffffffffffffffffffffffffffffffffffffffffffffffffffff8214156133a4576133a36133e0565b5b600182019050919050565b60006133ba82613298565b91506133c583613298565b9250826133d5576133d461340f565b5b828206905092915050565b7f4e487b7100000000000000000000000000000000000000000000000000000000600052601160045260246000fd5b7f4e487b7100000000000000000000000000000000000000000000000000000000600052601260045260246000fd5b7f4e487b7100000000000000000000000000000000000000000000000000000000600052602260045260246000fd5b7f4e487b7100000000000000000000000000000000000000000000000000000000600052603260045260246000fd5b7f4e487b7100000000000000000000000000000000000000000000000000000000600052604160045260246000fd5b600080fd5b600080fd5b600080fd5b600080fd5b600080fd5b6000601f19601f8301169050919050565b7f4552433732313a207472616e7366657220746f206e6f6e20455243373231526560008201527f63656976657220696d706c656d656e7465720000000000000000000000000000602082015250565b7f4f776e61626c653a206e6577206f776e657220697320746865207a65726f206160008201527f6464726573730000000000000000000000000000000000000000000000000000602082015250565b7f4552433732313a207472616e736665722066726f6d20696e636f72726563742060008201527f6f776e6572000000000000000000000000000000000000000000000000000000602082015250565b7f4552433732313a20746f6b656e20616c7265616479206d696e74656400000000600082015250565b7f4552433732313a207472616e7366657220746f20746865207a65726f2061646460008201527f7265737300000000000000000000000000000000000000000000000000000000602082015250565b7f4552433732313a20617070726f766520746f2063616c6c657200000000000000600082015250565b7f4552433732313a206f70657261746f7220717565727920666f72206e6f6e657860008201527f697374656e7420746f6b656e0000000000000000000000000000000000000000602082015250565b7f4552433732313a20617070726f76652063616c6c6572206973206e6f74206f7760008201527f6e6572206e6f7220617070726f76656420666f7220616c6c0000000000000000602082015250565b7f4552433732313a2062616c616e636520717565727920666f7220746865207a6560008201527f726f206164647265737300000000000000000000000000000000000000000000602082015250565b7f4552433732313a206f776e657220717565727920666f72206e6f6e657869737460008201527f656e7420746f6b656e0000000000000000000000000000000000000000000000602082015250565b7f45524337323155524953746f726167653a2055524920736574206f66206e6f6e60008201527f6578697374656e7420746f6b656e000000000000000000000000000000000000602082015250565b7f496e697469616c697a61626c653a20636f6e747261637420697320616c72656160008201527f647920696e697469616c697a6564000000000000000000000000000000000000602082015250565b7f4552433732313a206d696e7420746f20746865207a65726f2061646472657373600082015250565b7f45524337323155524953746f726167653a2055524920717565727920666f722060008201527f6e6f6e6578697374656e7420746f6b656e000000000000000000000000000000602082015250565b7f4552433732313a20617070726f76656420717565727920666f72206e6f6e657860008201527f697374656e7420746f6b656e0000000000000000000000000000000000000000602082015250565b7f4f776e61626c653a2063616c6c6572206973206e6f7420746865206f776e6572600082015250565b7f4552433732314d657461646174613a2055524920717565727920666f72206e6f60008201527f6e6578697374656e7420746f6b656e0000000000000000000000000000000000602082015250565b7f4552433732313a20617070726f76616c20746f2063757272656e74206f776e6560008201527f7200000000000000000000000000000000000000000000000000000000000000602082015250565b7f4c656e677468206d69736d617463680000000000000000000000000000000000600082015250565b7f4552433732313a207472616e736665722063616c6c6572206973206e6f74206f60008201527f776e6572206e6f7220617070726f766564000000000000000000000000000000602082015250565b7f496e697469616c697a61626c653a20636f6e7472616374206973206e6f74206960008201527f6e697469616c697a696e67000000000000000000000000000000000000000000602082015250565b7f4e6f742061646d696e0000000000000000000000000000000000000000000000600082015250565b613ae48161322e565b8114613aef57600080fd5b50565b613afb81613240565b8114613b0657600080fd5b50565b613b128161324c565b8114613b1d57600080fd5b50565b613b2981613298565b8114613b3457600080fd5b5056fea2646970667358221220b5444f712071f43f188644616dbfb43359f0651e9853e64e2b2d15e51a56a9e364736f6c63430008060033",
  "devdoc": {
    "kind": "dev",
    "methods": {
      "approve(address,uint256)": {
        "details": "See {IERC721-approve}."
      },
      "balanceOf(address)": {
        "details": "See {IERC721-balanceOf}."
      },
      "getApproved(uint256)": {
        "details": "See {IERC721-getApproved}."
      },
      "isApprovedForAll(address,address)": {
        "details": "See {IERC721-isApprovedForAll}."
      },
      "name()": {
        "details": "See {IERC721Metadata-name}."
      },
      "owner()": {
        "details": "Returns the address of the current owner."
      },
      "ownerOf(uint256)": {
        "details": "See {IERC721-ownerOf}."
      },
      "renounceOwnership()": {
        "details": "Leaves the contract without owner. It will not be possible to call `onlyOwner` functions anymore. Can only be called by the current owner. NOTE: Renouncing ownership will leave the contract without an owner, thereby removing any functionality that is only available to the owner."
      },
      "safeTransferFrom(address,address,uint256)": {
        "details": "See {IERC721-safeTransferFrom}."
      },
      "safeTransferFrom(address,address,uint256,bytes)": {
        "details": "See {IERC721-safeTransferFrom}."
      },
      "setApprovalForAll(address,bool)": {
        "details": "See {IERC721-setApprovalForAll}."
      },
      "supportsInterface(bytes4)": {
        "details": "See {IERC165-supportsInterface}."
      },
      "symbol()": {
        "details": "See {IERC721Metadata-symbol}."
      },
      "tokenURI(uint256)": {
        "details": "See {IERC721Metadata-tokenURI}."
      },
      "transferFrom(address,address,uint256)": {
        "details": "See {IERC721-transferFrom}."
      },
      "transferOwnership(address)": {
        "details": "Transfers ownership of the contract to a new account (`newOwner`). Can only be called by the current owner."
      }
    },
    "version": 1
  },
  "userdoc": {
    "kind": "user",
    "methods": {},
    "version": 1
  },
  "storageLayout": {
    "storage": [
      {
        "astId": 130,
        "contract": "contracts/NFT.sol:NFT",
        "label": "_initialized",
        "offset": 0,
        "slot": "0",
        "type": "t_uint8"
      },
      {
        "astId": 133,
        "contract": "contracts/NFT.sol:NFT",
        "label": "_initializing",
        "offset": 1,
        "slot": "0",
        "type": "t_bool"
      },
      {
        "astId": 2110,
        "contract": "contracts/NFT.sol:NFT",
        "label": "__gap",
        "offset": 0,
        "slot": "1",
        "type": "t_array(t_uint256)50_storage"
      },
      {
        "astId": 2357,
        "contract": "contracts/NFT.sol:NFT",
        "label": "__gap",
        "offset": 0,
        "slot": "51",
        "type": "t_array(t_uint256)50_storage"
      },
      {
        "astId": 655,
        "contract": "contracts/NFT.sol:NFT",
        "label": "_name",
        "offset": 0,
        "slot": "101",
        "type": "t_string_storage"
      },
      {
        "astId": 657,
        "contract": "contracts/NFT.sol:NFT",
        "label": "_symbol",
        "offset": 0,
        "slot": "102",
        "type": "t_string_storage"
      },
      {
        "astId": 661,
        "contract": "contracts/NFT.sol:NFT",
        "label": "_owners",
        "offset": 0,
        "slot": "103",
        "type": "t_mapping(t_uint256,t_address)"
      },
      {
        "astId": 665,
        "contract": "contracts/NFT.sol:NFT",
        "label": "_balances",
        "offset": 0,
        "slot": "104",
        "type": "t_mapping(t_address,t_uint256)"
      },
      {
        "astId": 669,
        "contract": "contracts/NFT.sol:NFT",
        "label": "_tokenApprovals",
        "offset": 0,
        "slot": "105",
        "type": "t_mapping(t_uint256,t_address)"
      },
      {
        "astId": 675,
        "contract": "contracts/NFT.sol:NFT",
        "label": "_operatorApprovals",
        "offset": 0,
        "slot": "106",
        "type": "t_mapping(t_address,t_mapping(t_address,t_bool))"
      },
      {
        "astId": 1516,
        "contract": "contracts/NFT.sol:NFT",
        "label": "__gap",
        "offset": 0,
        "slot": "107",
        "type": "t_array(t_uint256)44_storage"
      },
      {
        "astId": 1679,
        "contract": "contracts/NFT.sol:NFT",
        "label": "_tokenURIs",
        "offset": 0,
        "slot": "151",
        "type": "t_mapping(t_uint256,t_string_storage)"
      },
      {
        "astId": 1798,
        "contract": "contracts/NFT.sol:NFT",
        "label": "__gap",
        "offset": 0,
        "slot": "152",
        "type": "t_array(t_uint256)49_storage"
      },
      {
        "astId": 10,
        "contract": "contracts/NFT.sol:NFT",
        "label": "_owner",
        "offset": 0,
        "slot": "201",
        "type": "t_address"
      },
      {
        "astId": 122,
        "contract": "contracts/NFT.sol:NFT",
        "label": "__gap",
        "offset": 0,
        "slot": "202",
        "type": "t_array(t_uint256)49_storage"
      },
      {
        "astId": 6102,
        "contract": "contracts/NFT.sol:NFT",
        "label": "admins",
        "offset": 0,
        "slot": "251",
        "type": "t_mapping(t_address,t_bool)"
      },
      {
        "astId": 6486,
        "contract": "contracts/NFT.sol:NFT",
        "label": "_counter",
        "offset": 0,
        "slot": "252",
        "type": "t_uint256"
      }
    ],
    "types": {
      "t_address": {
        "encoding": "inplace",
        "label": "address",
        "numberOfBytes": "20"
      },
      "t_array(t_uint256)44_storage": {
        "base": "t_uint256",
        "encoding": "inplace",
        "label": "uint256[44]",
        "numberOfBytes": "1408"
      },
      "t_array(t_uint256)49_storage": {
        "base": "t_uint256",
        "encoding": "inplace",
        "label": "uint256[49]",
        "numberOfBytes": "1568"
      },
      "t_array(t_uint256)50_storage": {
        "base": "t_uint256",
        "encoding": "inplace",
        "label": "uint256[50]",
        "numberOfBytes": "1600"
      },
      "t_bool": {
        "encoding": "inplace",
        "label": "bool",
        "numberOfBytes": "1"
      },
      "t_mapping(t_address,t_bool)": {
        "encoding": "mapping",
        "key": "t_address",
        "label": "mapping(address => bool)",
        "numberOfBytes": "32",
        "value": "t_bool"
      },
      "t_mapping(t_address,t_mapping(t_address,t_bool))": {
        "encoding": "mapping",
        "key": "t_address",
        "label": "mapping(address => mapping(address => bool))",
        "numberOfBytes": "32",
        "value": "t_mapping(t_address,t_bool)"
      },
      "t_mapping(t_address,t_uint256)": {
        "encoding": "mapping",
        "key": "t_address",
        "label": "mapping(address => uint256)",
        "numberOfBytes": "32",
        "value": "t_uint256"
      },
      "t_mapping(t_uint256,t_address)": {
        "encoding": "mapping",
        "key": "t_uint256",
        "label": "mapping(uint256 => address)",
        "numberOfBytes": "32",
        "value": "t_address"
      },
      "t_mapping(t_uint256,t_string_storage)": {
        "encoding": "mapping",
        "key": "t_uint256",
        "label": "mapping(uint256 => string)",
        "numberOfBytes": "32",
        "value": "t_string_storage"
      },
      "t_string_storage": {
        "encoding": "bytes",
        "label": "string",
        "numberOfBytes": "32"
      },
      "t_uint256": {
        "encoding": "inplace",
        "label": "uint256",
        "numberOfBytes": "32"
      },
      "t_uint8": {
        "encoding": "inplace",
        "label": "uint8",
        "numberOfBytes": "1"
      }
    }
  }
}